{
  "contractName": "ArtifactsManager",
  "abi": [
    {
      "constant": true,
      "inputs": [
        {
          "name": "account",
          "type": "address"
        }
      ],
      "name": "isAssignee",
      "outputs": [
        {
          "name": "",
          "type": "bool"
        }
      ],
      "payable": false,
      "stateMutability": "view",
      "type": "function"
    },
    {
      "constant": true,
      "inputs": [],
      "name": "assignee",
      "outputs": [
        {
          "name": "",
          "type": "address"
        }
      ],
      "payable": false,
      "stateMutability": "view",
      "type": "function"
    },
    {
      "inputs": [
        {
          "name": "assignee",
          "type": "address"
        },
        {
          "name": "voting",
          "type": "address"
        },
        {
          "name": "buck",
          "type": "address"
        }
      ],
      "payable": false,
      "stateMutability": "nonpayable",
      "type": "constructor"
    },
    {
      "anonymous": false,
      "inputs": [
        {
          "indexed": false,
          "name": "artifactID",
          "type": "uint256"
        },
        {
          "indexed": false,
          "name": "purchaser",
          "type": "address"
        },
        {
          "indexed": false,
          "name": "beneficiary",
          "type": "address"
        }
      ],
      "name": "BuyedArtifact",
      "type": "event"
    },
    {
      "anonymous": false,
      "inputs": [
        {
          "indexed": false,
          "name": "artifactID",
          "type": "uint256"
        },
        {
          "indexed": false,
          "name": "description",
          "type": "string"
        },
        {
          "indexed": false,
          "name": "proposedPrice",
          "type": "uint256"
        }
      ],
      "name": "ProposedArtifact",
      "type": "event"
    },
    {
      "anonymous": false,
      "inputs": [
        {
          "indexed": false,
          "name": "artifactID",
          "type": "uint256"
        },
        {
          "indexed": false,
          "name": "finalPrice",
          "type": "uint256"
        }
      ],
      "name": "ApprovedArtifact",
      "type": "event"
    },
    {
      "constant": false,
      "inputs": [
        {
          "name": "artifactID",
          "type": "uint256"
        },
        {
          "name": "beneficiary",
          "type": "address"
        }
      ],
      "name": "buyArtifact",
      "outputs": [
        {
          "name": "",
          "type": "bool"
        }
      ],
      "payable": false,
      "stateMutability": "nonpayable",
      "type": "function"
    },
    {
      "constant": false,
      "inputs": [
        {
          "name": "artifactID",
          "type": "uint256"
        },
        {
          "name": "description",
          "type": "string"
        },
        {
          "name": "proposedPrice",
          "type": "uint256"
        }
      ],
      "name": "proposeArtifact",
      "outputs": [
        {
          "name": "",
          "type": "bool"
        }
      ],
      "payable": false,
      "stateMutability": "nonpayable",
      "type": "function"
    },
    {
      "constant": false,
      "inputs": [
        {
          "name": "artifactID",
          "type": "uint256"
        },
        {
          "name": "finalPrice",
          "type": "uint256"
        }
      ],
      "name": "approveArtifact",
      "outputs": [
        {
          "name": "",
          "type": "bool"
        }
      ],
      "payable": false,
      "stateMutability": "nonpayable",
      "type": "function"
    },
    {
      "constant": true,
      "inputs": [],
      "name": "voting",
      "outputs": [
        {
          "name": "",
          "type": "address"
        }
      ],
      "payable": false,
      "stateMutability": "view",
      "type": "function"
    },
    {
      "constant": true,
      "inputs": [],
      "name": "buck",
      "outputs": [
        {
          "name": "",
          "type": "address"
        }
      ],
      "payable": false,
      "stateMutability": "view",
      "type": "function"
    },
    {
      "constant": true,
      "inputs": [
        {
          "name": "artifactID",
          "type": "uint256"
        }
      ],
      "name": "getArtifactPriceByID",
      "outputs": [
        {
          "name": "",
          "type": "uint256"
        }
      ],
      "payable": false,
      "stateMutability": "view",
      "type": "function"
    },
    {
      "constant": true,
      "inputs": [
        {
          "name": "artifactID",
          "type": "uint256"
        }
      ],
      "name": "isArtifactApproved",
      "outputs": [
        {
          "name": "",
          "type": "bool"
        }
      ],
      "payable": false,
      "stateMutability": "view",
      "type": "function"
    },
    {
      "constant": true,
      "inputs": [],
      "name": "numberOfArtifactsProposed",
      "outputs": [
        {
          "name": "",
          "type": "uint256"
        }
      ],
      "payable": false,
      "stateMutability": "view",
      "type": "function"
    },
    {
      "constant": true,
      "inputs": [
        {
          "name": "index",
          "type": "uint256"
        }
      ],
      "name": "getArtifactIDByIndex",
      "outputs": [
        {
          "name": "",
          "type": "uint256"
        }
      ],
      "payable": false,
      "stateMutability": "view",
      "type": "function"
    },
    {
      "constant": true,
      "inputs": [
        {
          "name": "account",
          "type": "address"
        },
        {
          "name": "artifactID",
          "type": "uint256"
        }
      ],
      "name": "ownership",
      "outputs": [
        {
          "name": "",
          "type": "bool"
        }
      ],
      "payable": false,
      "stateMutability": "view",
      "type": "function"
    }
  ],
  "bytecode": "0x608060405234801561001057600080fd5b5060405160608061118c833981018060405281019080805190602001909291908051906020019092919080519060200190929190505050826000806101000a81548173ffffffffffffffffffffffffffffffffffffffff021916908373ffffffffffffffffffffffffffffffffffffffff16021790555081600160006101000a81548173ffffffffffffffffffffffffffffffffffffffff021916908373ffffffffffffffffffffffffffffffffffffffff16021790555080600260006101000a81548173ffffffffffffffffffffffffffffffffffffffff021916908373ffffffffffffffffffffffffffffffffffffffff1602179055505050506110718061011b6000396000f3006080604052600436106100ba576000357c0100000000000000000000000000000000000000000000000000000000900463ffffffff1680631087c237146100bf57806317e88bbe1461011657806332e2a9f714610157578063426dfaf7146101b2578063682c994c146102475780636e4bc8b91461029e5780638df9260f146103035780638f047f5914610344578063ad45e63714610389578063b67fb9a6146103d8578063ee9bfc8c14610403578063fce1ccca14610468575b600080fd5b3480156100cb57600080fd5b506100d46104bf565b604051808273ffffffffffffffffffffffffffffffffffffffff1673ffffffffffffffffffffffffffffffffffffffff16815260200191505060405180910390f35b34801561012257600080fd5b50610141600480360381019080803590602001909291905050506104e9565b6040518082815260200191505060405180910390f35b34801561016357600080fd5b50610198600480360381019080803573ffffffffffffffffffffffffffffffffffffffff169060200190929190505050610526565b604051808215151515815260200191505060405180910390f35b3480156101be57600080fd5b5061022d60048036038101908080359060200190929190803590602001908201803590602001908080601f01602080910402602001604051908101604052809392919081815260200183838082843782019150505050505091929192908035906020019092919050505061057f565b604051808215151515815260200191505060405180910390f35b34801561025357600080fd5b5061025c61088d565b604051808273ffffffffffffffffffffffffffffffffffffffff1673ffffffffffffffffffffffffffffffffffffffff16815260200191505060405180910390f35b3480156102aa57600080fd5b506102e960048036038101908080359060200190929190803573ffffffffffffffffffffffffffffffffffffffff1690602001909291905050506108b6565b604051808215151515815260200191505060405180910390f35b34801561030f57600080fd5b5061032e60048036038101908080359060200190929190505050610ca0565b6040518082815260200191505060405180910390f35b34801561035057600080fd5b5061036f60048036038101908080359060200190929190505050610d16565b604051808215151515815260200191505060405180910390f35b34801561039557600080fd5b506103be6004803603810190808035906020019092919080359060200190929190505050610d99565b604051808215151515815260200191505060405180910390f35b3480156103e457600080fd5b506103ed610eaa565b6040518082815260200191505060405180910390f35b34801561040f57600080fd5b5061044e600480360381019080803573ffffffffffffffffffffffffffffffffffffffff16906020019092919080359060200190929190505050610eb4565b604051808215151515815260200191505060405180910390f35b34801561047457600080fd5b5061047d610f1c565b604051808273ffffffffffffffffffffffffffffffffffffffff1673ffffffffffffffffffffffffffffffffffffffff16815260200191505060405180910390f35b6000600260009054906101000a900473ffffffffffffffffffffffffffffffffffffffff16905090565b60008082101580156104fd57506005548211155b151561050857600080fd5b60036000838152602001908152602001600020600001549050919050565b60008173ffffffffffffffffffffffffffffffffffffffff166000809054906101000a900473ffffffffffffffffffffffffffffffffffffffff1673ffffffffffffffffffffffffffffffffffffffff16149050919050565b600080600061058d33610526565b151561059857600080fd5b6000841115156105a757600080fd5b600360006004600089815260200190815260200160002054815260200190815260200160002091508160030160009054906101000a900460ff161515156105ed57600080fd5b60006004600088815260200190815260200160002054101580156106265750600554600460008881526020019081526020016000205411155b156106495784826001019080519060200190610643929190610fa0565b50610692565b600560008154600101919050819055905060036000828152602001908152602001600020915085826000018190555084826001019080519060200190610690929190610fa0565b505b600160009054906101000a900473ffffffffffffffffffffffffffffffffffffffff1673ffffffffffffffffffffffffffffffffffffffff1663a2267a3a8786886040518463ffffffff167c01000000000000000000000000000000000000000000000000000000000281526004018084815260200183815260200180602001828103825283818151815260200191508051906020019080838360005b8381101561074a57808201518184015260208101905061072f565b50505050905090810190601f1680156107775780820380516001836020036101000a031916815260200191505b50945050505050602060405180830381600087803b15801561079857600080fd5b505af11580156107ac573d6000803e3d6000fd5b505050506040513d60208110156107c257600080fd5b8101908080519060200190929190505050507f1b73ca47ae608e6ed9fb45a20862b431b9935c9013e71dff87e7e914a69289c08686866040518084815260200180602001838152602001828103825284818151815260200191508051906020019080838360005b83811015610844578082015181840152602081019050610829565b50505050905090810190601f1680156108715780820380516001836020036101000a031916815260200191505b5094505050505060405180910390a16001925050509392505050565b60008060009054906101000a900473ffffffffffffffffffffffffffffffffffffffff16905090565b600080600073ffffffffffffffffffffffffffffffffffffffff168373ffffffffffffffffffffffffffffffffffffffff16141515156108f557600080fd5b600060046000868152602001908152602001600020541015801561092e5750600554600460008681526020019081526020016000205411155b151561093957600080fd5b600360006004600087815260200190815260200160002054815260200190815260200160002090508060030160009054906101000a900460ff16151561097e57600080fd5b8060020154600260009054906101000a900473ffffffffffffffffffffffffffffffffffffffff1673ffffffffffffffffffffffffffffffffffffffff166370a08231336040518263ffffffff167c0100000000000000000000000000000000000000000000000000000000028152600401808273ffffffffffffffffffffffffffffffffffffffff1673ffffffffffffffffffffffffffffffffffffffff168152602001915050602060405180830381600087803b158015610a4057600080fd5b505af1158015610a54573d6000803e3d6000fd5b505050506040513d6020811015610a6a57600080fd5b810190808051906020019092919050505010151515610a8857600080fd5b600260009054906101000a900473ffffffffffffffffffffffffffffffffffffffff1673ffffffffffffffffffffffffffffffffffffffff1663224b5c723383600201546040518363ffffffff167c0100000000000000000000000000000000000000000000000000000000028152600401808373ffffffffffffffffffffffffffffffffffffffff1673ffffffffffffffffffffffffffffffffffffffff16815260200182815260200192505050602060405180830381600087803b158015610b5157600080fd5b505af1158015610b65573d6000803e3d6000fd5b505050506040513d6020811015610b7b57600080fd5b8101908080519060200190929190505050506001600660008573ffffffffffffffffffffffffffffffffffffffff1673ffffffffffffffffffffffffffffffffffffffff168152602001908152602001600020600086815260200190815260200160002060006101000a81548160ff0219169083151502179055507fa0c3ad62b2f4a98c44527e1d5a57331038cbbf4d4f008f1d5ba2d939b51ce1fd843385604051808481526020018373ffffffffffffffffffffffffffffffffffffffff1673ffffffffffffffffffffffffffffffffffffffff1681526020018273ffffffffffffffffffffffffffffffffffffffff1673ffffffffffffffffffffffffffffffffffffffff168152602001935050505060405180910390a1600191505092915050565b600080600460008481526020019081526020016000205410158015610cda5750600554600460008481526020019081526020016000205411155b1515610ce557600080fd5b6003600060046000858152602001908152602001600020548152602001908152602001600020600201549050919050565b600080600460008481526020019081526020016000205410158015610d505750600554600460008481526020019081526020016000205411155b1515610d5b57600080fd5b600360006004600085815260200190815260200160002054815260200190815260200160002060030160009054906101000a900460ff169050919050565b600080610da533610f46565b1515610db057600080fd5b6000600460008681526020019081526020016000205410158015610de95750600554600460008681526020019081526020016000205411155b1515610df457600080fd5b600360006004600087815260200190815260200160002054815260200190815260200160002090508060030160009054906101000a900460ff16151515610e3a57600080fd5b60018160030160006101000a81548160ff0219169083151502179055508281600201819055507ff584eef257935d9e20de79ea8edd7bf4475df2847f1acb066895fcdea07f86de8484604051808381526020018281526020019250505060405180910390a1600191505092915050565b6000600554905090565b6000600660008473ffffffffffffffffffffffffffffffffffffffff1673ffffffffffffffffffffffffffffffffffffffff168152602001908152602001600020600083815260200190815260200160002060009054906101000a900460ff16905092915050565b6000600160009054906101000a900473ffffffffffffffffffffffffffffffffffffffff16905090565b60008173ffffffffffffffffffffffffffffffffffffffff16600160009054906101000a900473ffffffffffffffffffffffffffffffffffffffff1673ffffffffffffffffffffffffffffffffffffffff16149050919050565b828054600181600116156101000203166002900490600052602060002090601f016020900481019282601f10610fe157805160ff191683800117855561100f565b8280016001018555821561100f579182015b8281111561100e578251825591602001919060010190610ff3565b5b50905061101c9190611020565b5090565b61104291905b8082111561103e576000816000905550600101611026565b5090565b905600a165627a7a72305820149a001b5ed90f559d0ca5d4a3b4cf54178941b44d443827cfdc16d1ca2bda5a0029",
  "source": "pragma solidity ^0.4.24;\n\nimport \"./properties/Ownable.sol\";\nimport \"./properties/Assignable.sol\";\nimport \"./Voting.sol\";\nimport \"./tokens/Buck.sol\";\n\n/**\n * @title Contract used to manage Artifacts\n */\ncontract ArtifactsManager is Assignable {\n\n  // The voting contract\n  Voting private _voting;\n\n  // The token used for prices\n  Buck private _buck;\n  \n  // List of Artifacts proposed\n  mapping (uint => Artifact) private _artifactsProposed;\n\n  // List of Artifacts index\n  mapping (uint => uint) private _artifactsIndex;\n \n  // Number of Artifacts proposed\n  uint private _numArtifactsProposed;\n\n  // Ownership of an artifact by an account \n  mapping (address => mapping (uint => bool)) _ownership; \n\n  /**\n   * Event for an artifact buyed\n   */\n  event BuyedArtifact(uint artifactID, address purchaser, address beneficiary);\n\n  /**\n   * Event for an artifact proposed\n   */\n  event ProposedArtifact(uint artifactID, string description, uint proposedPrice);\n\n  /**\n   * Event for an artifact approved\n   */\n  event ApprovedArtifact(uint artifactID, uint finalPrice);\n  \n  /**\n   * Structure used to manipulate an artifact\n   */\n  struct Artifact {\n    uint id;\n    string description;\n    uint price;\n    bool approved;\n  }\n\n  /**\n   * @dev Modifier to allow only the voting contract\n   */\n  modifier onlyVoting() {\n    require(isVoting(msg.sender));\n    _;\n  }\n\n  /**\n   * @param assignee Address of the entity management depends on \n   * @param voting Address of the voting contract\n   * @param buck Address of the token used for prices\n   */\n  constructor (address assignee, Voting voting, Buck buck) public {\n    _assignee = assignee;\n    _voting = voting;\n    _buck = buck;\n  }\n\n  /**\n   * @dev Buy an artifact using Bucks\n   */\n  function buyArtifact(uint artifactID, address beneficiary) public returns (bool) {\n    require(beneficiary != address(0));\n    require (_artifactsIndex[artifactID] >= 0 && _artifactsIndex[artifactID] <= _numArtifactsProposed);\n    Artifact storage a = _artifactsProposed[_artifactsIndex[artifactID]];\n    require (a.approved);\n    require (_buck.balanceOf(msg.sender) >= a.price);\n\n    _buck.consume(msg.sender, a.price);\n    _ownership[beneficiary][artifactID] = true;\n\n    emit BuyedArtifact(artifactID, msg.sender,beneficiary);\n\n    return true;    \n  }\n\n  /**\n   * @dev Propose an artifact to vote\n   */\n  function proposeArtifact(uint artifactID, string description, uint proposedPrice) public onlyAssignee returns (bool) {\n    require(proposedPrice > 0);\n    Artifact storage a = _artifactsProposed[_artifactsIndex[artifactID]];\n    require (!a.approved);\n\n    if(_artifactsIndex[artifactID] >= 0 && _artifactsIndex[artifactID] <= _numArtifactsProposed) {\n        a.description = description;\n      } else {\n        uint arIndex = ++_numArtifactsProposed;\n        a = _artifactsProposed[arIndex];\n        a.id = artifactID;\n        a.description = description;\n    }\n\n    _voting.newProposal(artifactID, proposedPrice, description);\n  \n    emit ProposedArtifact(artifactID, description, proposedPrice);\n\n    return true;    \n  }\n\n  /**\n   * @dev Add an artifact after vote\n   */\n  function approveArtifact(uint artifactID, uint finalPrice) public onlyVoting returns (bool) {\n    require (_artifactsIndex[artifactID] >= 0 && _artifactsIndex[artifactID] <= _numArtifactsProposed);\n    Artifact storage a = _artifactsProposed[_artifactsIndex[artifactID]];\n    require (!a.approved);\n\n    a.approved = true;\n    a.price = finalPrice;\n  \n    emit ApprovedArtifact(artifactID, finalPrice);\n\n    return true;    \n  }\n\n  /**\n   * @return The voting being used\n   */\n  function voting() public view returns(Voting) {\n    return _voting;\n  }\n\n  /**\n   * @return The token being used\n   */\n  function buck() public view returns(Buck) {\n    return _buck;\n  }\n\n  /**\n  * @return Get artifact price by id\n  */\n  function getArtifactPriceByID(uint artifactID) public view returns (uint) {\n    require (_artifactsIndex[artifactID] >= 0 && _artifactsIndex[artifactID] <= _numArtifactsProposed);\n    return _artifactsProposed[_artifactsIndex[artifactID]].price;\n  }\n\n  /**\n  * @return true if the artifact is approved\n  */\n  function isArtifactApproved(uint artifactID) public view returns (bool) {\n    require (_artifactsIndex[artifactID] >= 0 && _artifactsIndex[artifactID] <= _numArtifactsProposed);\n    return _artifactsProposed[_artifactsIndex[artifactID]].approved;\n  }\n\n  /**\n  * @return Number of Artifacts proposed\n  */\n  function numberOfArtifactsProposed() public view returns (uint) {\n    return _numArtifactsProposed;\n  }\n\n  /**\n  * @return Get artifact id by index\n  */\n  function getArtifactIDByIndex(uint index) public view returns (uint) {\n    require (index >= 0 && index <= _numArtifactsProposed);\n    return _artifactsProposed[index].id;\n  }\n\n  /**\n   * @return true if artifactID is owned by account\n   */\n  function ownership(address account, uint artifactID) public view returns (bool) {\n    return _ownership[account][artifactID];\n  }\n\n  /**\n   * @dev Function indicating if account is voting contract \n   */\n  function isVoting(address account) private view returns (bool) {\n    return _voting == account;\n  }\n}\n\n\n",
  "sourcePath": "/home/miker/truffle-projects/LikeStarter-Project/LikeStarterTruffle/contracts/ArtifactsManager.sol",
  "compiler": {
    "name": "solc",
    "version": "0.4.24+commit.e67f0147.Emscripten.clang"
  },
  "schemaVersion": "2.0.1",
  "updatedAt": "2018-12-01T20:35:48.939Z"
}