{
  "contractName": "Assignable",
  "abi": [
    {
      "constant": true,
      "inputs": [],
      "name": "assignee",
      "outputs": [
        {
          "name": "",
          "type": "address"
        }
      ],
      "payable": false,
      "stateMutability": "view",
      "type": "function"
    },
    {
      "constant": true,
      "inputs": [
        {
          "name": "account",
          "type": "address"
        }
      ],
      "name": "isAssignee",
      "outputs": [
        {
          "name": "",
          "type": "bool"
        }
      ],
      "payable": false,
      "stateMutability": "view",
      "type": "function"
    }
  ],
  "bytecode": "0x608060405234801561001057600080fd5b506101b1806100206000396000f30060806040526004361061004c576000357c0100000000000000000000000000000000000000000000000000000000900463ffffffff16806332e2a9f714610051578063682c994c146100ac575b600080fd5b34801561005d57600080fd5b50610092600480360381019080803573ffffffffffffffffffffffffffffffffffffffff169060200190929190505050610103565b604051808215151515815260200191505060405180910390f35b3480156100b857600080fd5b506100c161015c565b604051808273ffffffffffffffffffffffffffffffffffffffff1673ffffffffffffffffffffffffffffffffffffffff16815260200191505060405180910390f35b60008173ffffffffffffffffffffffffffffffffffffffff166000809054906101000a900473ffffffffffffffffffffffffffffffffffffffff1673ffffffffffffffffffffffffffffffffffffffff16149050919050565b60008060009054906101000a900473ffffffffffffffffffffffffffffffffffffffff169050905600a165627a7a7230582089b96f0b566b846e37e49e985b7c54c470d2692cebb99ffc0013ee1bd5f1fb520029",
  "source": "pragma solidity ^0.4.24;\n\n/**\n * @title Assignable contract\n */\ncontract Assignable {\n\n  // Entity contract depends on \n  address _assignee;\n\n  /**\n   * @dev Modifier to allow only the assignee\n   */\n  modifier onlyAssignee() {\n    require(isAssignee(msg.sender));\n    _;\n  }\n\n  /**\n  * @return Assignee \n  */\n  function assignee() public view returns (address) {\n    return _assignee;\n  }\n\n  /**\n   * @dev Function indicating if account is assignee \n   */\n  function isAssignee(address account) public view returns (bool) {\n    return _assignee == account;\n  }\n\n}",
  "sourcePath": "/home/miker/truffle-projects/LikeStarter-Project/LikeStarterTruffle/contracts/properties/Assignable.sol",
  "compiler": {
    "name": "solc",
    "version": "0.4.24+commit.e67f0147.Emscripten.clang"
  },
  "schemaVersion": "2.0.1",
  "updatedAt": "2018-12-01T20:29:58.156Z"
}