{
  "contractName": "Crowdsale",
  "abi": [
    {
      "constant": true,
      "inputs": [
        {
          "name": "account",
          "type": "address"
        }
      ],
      "name": "isAssignee",
      "outputs": [
        {
          "name": "",
          "type": "bool"
        }
      ],
      "payable": false,
      "stateMutability": "view",
      "type": "function"
    },
    {
      "constant": true,
      "inputs": [],
      "name": "assignee",
      "outputs": [
        {
          "name": "",
          "type": "address"
        }
      ],
      "payable": false,
      "stateMutability": "view",
      "type": "function"
    },
    {
      "inputs": [
        {
          "name": "rate",
          "type": "uint256"
        },
        {
          "name": "wallet",
          "type": "address"
        },
        {
          "name": "token",
          "type": "address"
        }
      ],
      "payable": false,
      "stateMutability": "nonpayable",
      "type": "constructor"
    },
    {
      "payable": true,
      "stateMutability": "payable",
      "type": "fallback"
    },
    {
      "anonymous": false,
      "inputs": [
        {
          "indexed": true,
          "name": "purchaser",
          "type": "address"
        },
        {
          "indexed": true,
          "name": "beneficiary",
          "type": "address"
        },
        {
          "indexed": false,
          "name": "value",
          "type": "uint256"
        },
        {
          "indexed": false,
          "name": "amount",
          "type": "uint256"
        }
      ],
      "name": "TokensPurchased",
      "type": "event"
    },
    {
      "constant": false,
      "inputs": [
        {
          "name": "beneficiary",
          "type": "address"
        }
      ],
      "name": "buyTokens",
      "outputs": [],
      "payable": true,
      "stateMutability": "payable",
      "type": "function"
    },
    {
      "constant": true,
      "inputs": [],
      "name": "token",
      "outputs": [
        {
          "name": "",
          "type": "address"
        }
      ],
      "payable": false,
      "stateMutability": "view",
      "type": "function"
    },
    {
      "constant": true,
      "inputs": [],
      "name": "rate",
      "outputs": [
        {
          "name": "",
          "type": "uint256"
        }
      ],
      "payable": false,
      "stateMutability": "view",
      "type": "function"
    },
    {
      "constant": true,
      "inputs": [],
      "name": "weiRaised",
      "outputs": [
        {
          "name": "",
          "type": "uint256"
        }
      ],
      "payable": false,
      "stateMutability": "view",
      "type": "function"
    }
  ],
  "bytecode": "0x608060405234801561001057600080fd5b5060405160608061073c83398101806040528101908080519060200190929190805190602001909291908051906020019092919050505060008311151561005657600080fd5b600073ffffffffffffffffffffffffffffffffffffffff168273ffffffffffffffffffffffffffffffffffffffff161415151561009257600080fd5b600073ffffffffffffffffffffffffffffffffffffffff168173ffffffffffffffffffffffffffffffffffffffff16141515156100ce57600080fd5b82600281905550816000806101000a81548173ffffffffffffffffffffffffffffffffffffffff021916908373ffffffffffffffffffffffffffffffffffffffff16021790555080600160006101000a81548173ffffffffffffffffffffffffffffffffffffffff021916908373ffffffffffffffffffffffffffffffffffffffff1602179055505050506105d4806101686000396000f300608060405260043610610078576000357c0100000000000000000000000000000000000000000000000000000000900463ffffffff1680632c4e722e1461008357806332e2a9f7146100ae5780634042b66f14610109578063682c994c14610134578063ec8ac4d81461018b578063fc0c546a146101c1575b61008133610218565b005b34801561008f57600080fd5b5061009861046b565b6040518082815260200191505060405180910390f35b3480156100ba57600080fd5b506100ef600480360381019080803573ffffffffffffffffffffffffffffffffffffffff169060200190929190505050610475565b604051808215151515815260200191505060405180910390f35b34801561011557600080fd5b5061011e6104ce565b6040518082815260200191505060405180910390f35b34801561014057600080fd5b506101496104d8565b604051808273ffffffffffffffffffffffffffffffffffffffff1673ffffffffffffffffffffffffffffffffffffffff16815260200191505060405180910390f35b6101bf600480360381019080803573ffffffffffffffffffffffffffffffffffffffff169060200190929190505050610218565b005b3480156101cd57600080fd5b506101d6610501565b604051808273ffffffffffffffffffffffffffffffffffffffff1673ffffffffffffffffffffffffffffffffffffffff16815260200191505060405180910390f35b600080600073ffffffffffffffffffffffffffffffffffffffff168373ffffffffffffffffffffffffffffffffffffffff161415151561025757600080fd5b3491506000821415151561026a57600080fd5b6102738261052b565b905061028a8260035461054990919063ffffffff16565b600381905550600160009054906101000a900473ffffffffffffffffffffffffffffffffffffffff1673ffffffffffffffffffffffffffffffffffffffff166340c10f1984836040518363ffffffff167c0100000000000000000000000000000000000000000000000000000000028152600401808373ffffffffffffffffffffffffffffffffffffffff1673ffffffffffffffffffffffffffffffffffffffff16815260200182815260200192505050602060405180830381600087803b15801561035557600080fd5b505af1158015610369573d6000803e3d6000fd5b505050506040513d602081101561037f57600080fd5b8101908080519060200190929190505050508273ffffffffffffffffffffffffffffffffffffffff163373ffffffffffffffffffffffffffffffffffffffff167f6faf93231a456e552dbc9961f58d9713ee4f2e69d15f1975b050ef0911053a7b8484604051808381526020018281526020019250505060405180910390a36000809054906101000a900473ffffffffffffffffffffffffffffffffffffffff1673ffffffffffffffffffffffffffffffffffffffff166108fc349081150290604051600060405180830381858888f19350505050158015610465573d6000803e3d6000fd5b50505050565b6000600254905090565b60008173ffffffffffffffffffffffffffffffffffffffff166000809054906101000a900473ffffffffffffffffffffffffffffffffffffffff1673ffffffffffffffffffffffffffffffffffffffff16149050919050565b6000600354905090565b60008060009054906101000a900473ffffffffffffffffffffffffffffffffffffffff16905090565b6000600160009054906101000a900473ffffffffffffffffffffffffffffffffffffffff16905090565b60006105426002548361056a90919063ffffffff16565b9050919050565b600080828401905083811015151561056057600080fd5b8091505092915050565b600080600084141561057f57600091506105a1565b828402905082848281151561059057fe5b0414151561059d57600080fd5b8091505b50929150505600a165627a7a72305820d7bb44dd21ffa13628cb5ace2b25f68f642fabd2f9e1bde5822f5c8b88707ba60029",
  "source": "pragma solidity ^0.4.24;\n\nimport \"./properties/Assignable.sol\";\nimport \"./tokens/Likoin.sol\";\n\n/**\n * @title Crowdsale\n *\n * @dev Implementation of the base contract for managing a token crowdsale.\n * Originally based on code by OpenZeppelin: https://github.com/OpenZeppelin/openzeppelin-solidity/blob/master/contracts/crowdsale/Crowdsale.sol\n */\ncontract Crowdsale is Assignable{\n  using SafeMath for uint256;\n\n  // The token being sold\n  Likoin private _token;\n\n  // How many token units a buyer gets per wei.\n  uint256 private _rate;\n\n  // Amount of wei raised\n  uint256 private _weiRaised;\n\n  /**\n   * Event for token purchase logging\n   */\n  event TokensPurchased(address indexed purchaser, address indexed beneficiary, uint256 value, uint256 amount);\n\n  /**\n   * @param rate Number of token units a buyer gets per wei\n   * @param wallet Address where collected funds will be forwarded to\n   * @param token Address of the token being sold\n   */\n  constructor(uint256 rate, address wallet, Likoin token) public {\n    require(rate > 0);\n    require(wallet != address(0));\n    require(token != address(0));\n\n    _rate = rate;\n    _assignee = wallet;\n    _token = token;\n  }\n\n  /**\n   * @dev fallback function\n   */\n  function () external payable {\n    buyTokens(msg.sender);\n  }\n\n  /**\n   * @dev token purchase\n   */\n  function buyTokens(address beneficiary) public payable {\n    require(beneficiary != address(0));\n    uint256 weiAmount = msg.value;\n    require(weiAmount != 0);\n\n    // calculate token amount to be created\n    uint256 tokens = _getTokenAmount(weiAmount);\n\n    // update state\n    _weiRaised = _weiRaised.add(weiAmount);\n\n    _token.mint(beneficiary, tokens);\n    emit TokensPurchased(msg.sender, beneficiary, weiAmount, tokens);\n\n    _assignee.transfer(msg.value);\n  }\n\n  /**\n   * @dev The way in which ether is converted to tokens.\n   */\n  function _getTokenAmount(uint256 weiAmount) internal view returns (uint256) {\n    return weiAmount.mul(_rate);\n  }\n\n  /**\n   * @return the token being sold.\n   */\n  function token() public view returns(Likoin) {\n    return _token;\n  }\n\n  /**\n   * @return the number of token units a buyer gets per wei.\n   */\n  function rate() public view returns(uint256) {\n    return _rate;\n  }\n\n  /**\n   * @return the amount of wei raised.\n   */\n  function weiRaised() public view returns (uint256) {\n    return _weiRaised;\n  }\n}",
  "sourcePath": "/home/miker/truffle-projects/LikeStarter-Project/LikeStarterTruffle/contracts/Crowdsale.sol",
  "compiler": {
    "name": "solc",
    "version": "0.4.24+commit.e67f0147.Emscripten.clang"
  },
  "schemaVersion": "2.0.1",
  "updatedAt": "2018-12-01T20:35:48.926Z"
}