{
  "contractName": "Likoin",
  "abi": [
    {
      "constant": true,
      "inputs": [],
      "name": "name",
      "outputs": [
        {
          "name": "",
          "type": "string"
        }
      ],
      "payable": false,
      "stateMutability": "view",
      "type": "function"
    },
    {
      "constant": true,
      "inputs": [],
      "name": "totalSupply",
      "outputs": [
        {
          "name": "",
          "type": "uint256"
        }
      ],
      "payable": false,
      "stateMutability": "view",
      "type": "function"
    },
    {
      "constant": true,
      "inputs": [
        {
          "name": "account",
          "type": "address"
        }
      ],
      "name": "isOwner",
      "outputs": [
        {
          "name": "",
          "type": "bool"
        }
      ],
      "payable": false,
      "stateMutability": "view",
      "type": "function"
    },
    {
      "constant": true,
      "inputs": [],
      "name": "decimals",
      "outputs": [
        {
          "name": "",
          "type": "uint8"
        }
      ],
      "payable": false,
      "stateMutability": "view",
      "type": "function"
    },
    {
      "constant": true,
      "inputs": [
        {
          "name": "account",
          "type": "address"
        }
      ],
      "name": "isAssignee",
      "outputs": [
        {
          "name": "",
          "type": "bool"
        }
      ],
      "payable": false,
      "stateMutability": "view",
      "type": "function"
    },
    {
      "constant": false,
      "inputs": [
        {
          "name": "to",
          "type": "address"
        },
        {
          "name": "value",
          "type": "uint256"
        }
      ],
      "name": "mint",
      "outputs": [
        {
          "name": "",
          "type": "bool"
        }
      ],
      "payable": false,
      "stateMutability": "nonpayable",
      "type": "function"
    },
    {
      "constant": true,
      "inputs": [],
      "name": "assignee",
      "outputs": [
        {
          "name": "",
          "type": "address"
        }
      ],
      "payable": false,
      "stateMutability": "view",
      "type": "function"
    },
    {
      "constant": true,
      "inputs": [],
      "name": "owner",
      "outputs": [
        {
          "name": "",
          "type": "address"
        }
      ],
      "payable": false,
      "stateMutability": "view",
      "type": "function"
    },
    {
      "constant": true,
      "inputs": [],
      "name": "symbol",
      "outputs": [
        {
          "name": "",
          "type": "string"
        }
      ],
      "payable": false,
      "stateMutability": "view",
      "type": "function"
    },
    {
      "constant": false,
      "inputs": [
        {
          "name": "account",
          "type": "address"
        }
      ],
      "name": "addMinter",
      "outputs": [],
      "payable": false,
      "stateMutability": "nonpayable",
      "type": "function"
    },
    {
      "constant": false,
      "inputs": [],
      "name": "renounceMinter",
      "outputs": [],
      "payable": false,
      "stateMutability": "nonpayable",
      "type": "function"
    },
    {
      "constant": true,
      "inputs": [
        {
          "name": "account",
          "type": "address"
        }
      ],
      "name": "isMinter",
      "outputs": [
        {
          "name": "",
          "type": "bool"
        }
      ],
      "payable": false,
      "stateMutability": "view",
      "type": "function"
    },
    {
      "inputs": [
        {
          "name": "assignee",
          "type": "address"
        },
        {
          "name": "buck",
          "type": "address"
        },
        {
          "name": "conversionRate",
          "type": "uint256"
        },
        {
          "name": "name",
          "type": "string"
        },
        {
          "name": "symbol",
          "type": "string"
        }
      ],
      "payable": false,
      "stateMutability": "nonpayable",
      "type": "constructor"
    },
    {
      "anonymous": false,
      "inputs": [
        {
          "indexed": true,
          "name": "beneficiary",
          "type": "address"
        },
        {
          "indexed": false,
          "name": "amount",
          "type": "uint256"
        }
      ],
      "name": "TokensConversion",
      "type": "event"
    },
    {
      "anonymous": false,
      "inputs": [
        {
          "indexed": true,
          "name": "owner",
          "type": "address"
        },
        {
          "indexed": true,
          "name": "spender",
          "type": "address"
        },
        {
          "indexed": false,
          "name": "value",
          "type": "uint256"
        }
      ],
      "name": "Approval",
      "type": "event"
    },
    {
      "anonymous": false,
      "inputs": [
        {
          "indexed": true,
          "name": "from",
          "type": "address"
        },
        {
          "indexed": true,
          "name": "to",
          "type": "address"
        },
        {
          "indexed": false,
          "name": "value",
          "type": "uint256"
        }
      ],
      "name": "Transfer",
      "type": "event"
    },
    {
      "anonymous": false,
      "inputs": [
        {
          "indexed": true,
          "name": "account",
          "type": "address"
        }
      ],
      "name": "MinterAdded",
      "type": "event"
    },
    {
      "anonymous": false,
      "inputs": [
        {
          "indexed": true,
          "name": "account",
          "type": "address"
        }
      ],
      "name": "MinterRemoved",
      "type": "event"
    },
    {
      "constant": false,
      "inputs": [
        {
          "name": "to",
          "type": "address"
        },
        {
          "name": "value",
          "type": "uint256"
        }
      ],
      "name": "transfer",
      "outputs": [
        {
          "name": "",
          "type": "bool"
        }
      ],
      "payable": false,
      "stateMutability": "nonpayable",
      "type": "function"
    },
    {
      "constant": false,
      "inputs": [
        {
          "name": "value",
          "type": "uint256"
        }
      ],
      "name": "convertToBucks",
      "outputs": [
        {
          "name": "success",
          "type": "bool"
        }
      ],
      "payable": false,
      "stateMutability": "nonpayable",
      "type": "function"
    },
    {
      "constant": false,
      "inputs": [
        {
          "name": "spender",
          "type": "address"
        },
        {
          "name": "value",
          "type": "uint256"
        }
      ],
      "name": "approve",
      "outputs": [
        {
          "name": "",
          "type": "bool"
        }
      ],
      "payable": false,
      "stateMutability": "nonpayable",
      "type": "function"
    },
    {
      "constant": false,
      "inputs": [
        {
          "name": "from",
          "type": "address"
        },
        {
          "name": "to",
          "type": "address"
        },
        {
          "name": "value",
          "type": "uint256"
        }
      ],
      "name": "transferFrom",
      "outputs": [
        {
          "name": "",
          "type": "bool"
        }
      ],
      "payable": false,
      "stateMutability": "nonpayable",
      "type": "function"
    },
    {
      "constant": false,
      "inputs": [
        {
          "name": "spender",
          "type": "address"
        },
        {
          "name": "addedValue",
          "type": "uint256"
        }
      ],
      "name": "increaseAllowance",
      "outputs": [
        {
          "name": "",
          "type": "bool"
        }
      ],
      "payable": false,
      "stateMutability": "nonpayable",
      "type": "function"
    },
    {
      "constant": false,
      "inputs": [
        {
          "name": "spender",
          "type": "address"
        },
        {
          "name": "subtractedValue",
          "type": "uint256"
        }
      ],
      "name": "decreaseAllowance",
      "outputs": [
        {
          "name": "",
          "type": "bool"
        }
      ],
      "payable": false,
      "stateMutability": "nonpayable",
      "type": "function"
    },
    {
      "constant": true,
      "inputs": [],
      "name": "buck",
      "outputs": [
        {
          "name": "",
          "type": "address"
        }
      ],
      "payable": false,
      "stateMutability": "view",
      "type": "function"
    },
    {
      "constant": true,
      "inputs": [],
      "name": "conversionRate",
      "outputs": [
        {
          "name": "",
          "type": "uint256"
        }
      ],
      "payable": false,
      "stateMutability": "view",
      "type": "function"
    },
    {
      "constant": true,
      "inputs": [
        {
          "name": "account",
          "type": "address"
        }
      ],
      "name": "balanceOf",
      "outputs": [
        {
          "name": "",
          "type": "uint256"
        }
      ],
      "payable": false,
      "stateMutability": "view",
      "type": "function"
    },
    {
      "constant": true,
      "inputs": [
        {
          "name": "owner",
          "type": "address"
        },
        {
          "name": "spender",
          "type": "address"
        }
      ],
      "name": "allowance",
      "outputs": [
        {
          "name": "",
          "type": "uint256"
        }
      ],
      "payable": false,
      "stateMutability": "view",
      "type": "function"
    },
    {
      "constant": true,
      "inputs": [],
      "name": "getBalanceHoldersLength",
      "outputs": [
        {
          "name": "",
          "type": "uint256"
        }
      ],
      "payable": false,
      "stateMutability": "view",
      "type": "function"
    },
    {
      "constant": true,
      "inputs": [
        {
          "name": "i",
          "type": "uint256"
        }
      ],
      "name": "getBalanceHolder",
      "outputs": [
        {
          "name": "",
          "type": "address"
        }
      ],
      "payable": false,
      "stateMutability": "view",
      "type": "function"
    }
  ],
  "bytecode": "0x60806040523480156200001157600080fd5b50604051620026103803806200261083398101806040528101908080519060200190929190805190602001909291908051906020019092919080518201929190602001805182019291905050506000831115156200006e57600080fd5b600073ffffffffffffffffffffffffffffffffffffffff168573ffffffffffffffffffffffffffffffffffffffff1614151515620000ab57600080fd5b600073ffffffffffffffffffffffffffffffffffffffff168473ffffffffffffffffffffffffffffffffffffffff1614151515620000e857600080fd5b336000806101000a81548173ffffffffffffffffffffffffffffffffffffffff021916908373ffffffffffffffffffffffffffffffffffffffff16021790555084600260006101000a81548173ffffffffffffffffffffffffffffffffffffffff021916908373ffffffffffffffffffffffffffffffffffffffff160217905550620001833362000222640100000000026401000000009004565b6200019d8562000222640100000000026401000000009004565b8160039080519060200190620001b592919062000379565b508060049080519060200190620001ce92919062000379565b5083600660006101000a81548173ffffffffffffffffffffffffffffffffffffffff021916908373ffffffffffffffffffffffffffffffffffffffff16021790555082600781905550505050505062000428565b600073ffffffffffffffffffffffffffffffffffffffff168173ffffffffffffffffffffffffffffffffffffffff16141515156200025f57600080fd5b620002798162000323640100000000026401000000009004565b1515156200028657600080fd5b60018060008373ffffffffffffffffffffffffffffffffffffffff1673ffffffffffffffffffffffffffffffffffffffff16815260200190815260200160002060006101000a81548160ff0219169083151502179055508073ffffffffffffffffffffffffffffffffffffffff167f6ae172837ea30b801fbfcdd4108aa1d5bf8ff775444fd70256b44e6bf3dfc3f660405160405180910390a250565b6000600160008373ffffffffffffffffffffffffffffffffffffffff1673ffffffffffffffffffffffffffffffffffffffff16815260200190815260200160002060009054906101000a900460ff169050919050565b828054600181600116156101000203166002900490600052602060002090601f016020900481019282601f10620003bc57805160ff1916838001178555620003ed565b82800160010185558215620003ed579182015b82811115620003ec578251825591602001919060010190620003cf565b5b509050620003fc919062000400565b5090565b6200042591905b808211156200042157600081600090555060010162000407565b5090565b90565b6121d880620004386000396000f30060806040526004361061013e576000357c0100000000000000000000000000000000000000000000000000000000900463ffffffff16806306fdde0314610143578063095ea7b3146101d35780630f385656146102385780631087c2371461026357806314d171c8146102ba57806318160ddd146102ff57806323b872dd1461032a5780632f54bf6e146103af578063313ce5671461040a57806332e2a9f71461043b578063395093511461049657806340c10f19146104fb578063682c994c1461056057806370a08231146105b7578063786d358d1461060e5780637ffdf53e1461067b5780638da5cb5b146106a657806395d89b41146106fd578063983b2d561461078d57806398650275146107d0578063a457c2d7146107e7578063a9059cbb1461084c578063aa271e1a146108b1578063dd62ed3e1461090c575b600080fd5b34801561014f57600080fd5b50610158610983565b6040518080602001828103825283818151815260200191508051906020019080838360005b8381101561019857808201518184015260208101905061017d565b50505050905090810190601f1680156101c55780820380516001836020036101000a031916815260200191505b509250505060405180910390f35b3480156101df57600080fd5b5061021e600480360381019080803573ffffffffffffffffffffffffffffffffffffffff16906020019092919080359060200190929190505050610a25565b604051808215151515815260200191505060405180910390f35b34801561024457600080fd5b5061024d610b52565b6040518082815260200191505060405180910390f35b34801561026f57600080fd5b50610278610b5c565b604051808273ffffffffffffffffffffffffffffffffffffffff1673ffffffffffffffffffffffffffffffffffffffff16815260200191505060405180910390f35b3480156102c657600080fd5b506102e560048036038101908080359060200190929190505050610b86565b604051808215151515815260200191505060405180910390f35b34801561030b57600080fd5b50610314610d0b565b6040518082815260200191505060405180910390f35b34801561033657600080fd5b50610395600480360381019080803573ffffffffffffffffffffffffffffffffffffffff169060200190929190803573ffffffffffffffffffffffffffffffffffffffff16906020019092919080359060200190929190505050610d15565b604051808215151515815260200191505060405180910390f35b3480156103bb57600080fd5b506103f0600480360381019080803573ffffffffffffffffffffffffffffffffffffffff169060200190929190505050610ec7565b604051808215151515815260200191505060405180910390f35b34801561041657600080fd5b5061041f610f20565b604051808260ff1660ff16815260200191505060405180910390f35b34801561044757600080fd5b5061047c600480360381019080803573ffffffffffffffffffffffffffffffffffffffff169060200190929190505050610f29565b604051808215151515815260200191505060405180910390f35b3480156104a257600080fd5b506104e1600480360381019080803573ffffffffffffffffffffffffffffffffffffffff16906020019092919080359060200190929190505050610f83565b604051808215151515815260200191505060405180910390f35b34801561050757600080fd5b50610546600480360381019080803573ffffffffffffffffffffffffffffffffffffffff169060200190929190803590602001909291905050506111ba565b604051808215151515815260200191505060405180910390f35b34801561056c57600080fd5b506105756111e4565b604051808273ffffffffffffffffffffffffffffffffffffffff1673ffffffffffffffffffffffffffffffffffffffff16815260200191505060405180910390f35b3480156105c357600080fd5b506105f8600480360381019080803573ffffffffffffffffffffffffffffffffffffffff16906020019092919050505061120e565b6040518082815260200191505060405180910390f35b34801561061a57600080fd5b5061063960048036038101908080359060200190929190505050611266565b604051808273ffffffffffffffffffffffffffffffffffffffff1673ffffffffffffffffffffffffffffffffffffffff16815260200191505060405180910390f35b34801561068757600080fd5b506106906112b4565b6040518082815260200191505060405180910390f35b3480156106b257600080fd5b506106bb6112be565b604051808273ffffffffffffffffffffffffffffffffffffffff1673ffffffffffffffffffffffffffffffffffffffff16815260200191505060405180910390f35b34801561070957600080fd5b506107126112e7565b6040518080602001828103825283818151815260200191508051906020019080838360005b83811015610752578082015181840152602081019050610737565b50505050905090810190601f16801561077f5780820380516001836020036101000a031916815260200191505b509250505060405180910390f35b34801561079957600080fd5b506107ce600480360381019080803573ffffffffffffffffffffffffffffffffffffffff169060200190929190505050611389565b005b3480156107dc57600080fd5b506107e56113a9565b005b3480156107f357600080fd5b50610832600480360381019080803573ffffffffffffffffffffffffffffffffffffffff169060200190929190803590602001909291905050506113b4565b604051808215151515815260200191505060405180910390f35b34801561085857600080fd5b50610897600480360381019080803573ffffffffffffffffffffffffffffffffffffffff169060200190929190803590602001909291905050506115eb565b604051808215151515815260200191505060405180910390f35b3480156108bd57600080fd5b506108f2600480360381019080803573ffffffffffffffffffffffffffffffffffffffff169060200190929190505050611602565b604051808215151515815260200191505060405180910390f35b34801561091857600080fd5b5061096d600480360381019080803573ffffffffffffffffffffffffffffffffffffffff169060200190929190803573ffffffffffffffffffffffffffffffffffffffff169060200190929190505050611658565b6040518082815260200191505060405180910390f35b606060038054600181600116156101000203166002900480601f016020809104026020016040519081016040528092919081815260200182805460018160011615610100020316600290048015610a1b5780601f106109f057610100808354040283529160200191610a1b565b820191906000526020600020905b8154815290600101906020018083116109fe57829003601f168201915b5050505050905090565b60008073ffffffffffffffffffffffffffffffffffffffff168373ffffffffffffffffffffffffffffffffffffffff1614151515610a6257600080fd5b81600960003373ffffffffffffffffffffffffffffffffffffffff1673ffffffffffffffffffffffffffffffffffffffff16815260200190815260200160002060008573ffffffffffffffffffffffffffffffffffffffff1673ffffffffffffffffffffffffffffffffffffffff168152602001908152602001600020819055508273ffffffffffffffffffffffffffffffffffffffff163373ffffffffffffffffffffffffffffffffffffffff167f8c5be1e5ebec7d5bd14f71427d1e84f3dd0314c0f7b2291e5b200ac8c7c3b925846040518082815260200191505060405180910390a36001905092915050565b6000600b54905090565b6000600660009054906101000a900473ffffffffffffffffffffffffffffffffffffffff16905090565b60008082610b933361120e565b10151515610ba057600080fd5b610baa33846116df565b503373ffffffffffffffffffffffffffffffffffffffff167ff4a6ecea0ab685d5dd3e22e84512c74b59963d1bb0fdc0147c4728e2a81b8414846040518082815260200191505060405180910390a260075483029050600660009054906101000a900473ffffffffffffffffffffffffffffffffffffffff1673ffffffffffffffffffffffffffffffffffffffff166340c10f1933836040518363ffffffff167c0100000000000000000000000000000000000000000000000000000000028152600401808373ffffffffffffffffffffffffffffffffffffffff1673ffffffffffffffffffffffffffffffffffffffff16815260200182815260200192505050602060405180830381600087803b158015610cc557600080fd5b505af1158015610cd9573d6000803e3d6000fd5b505050506040513d6020811015610cef57600080fd5b8101908080519060200190929190505050506001915050919050565b6000600554905090565b6000600960008573ffffffffffffffffffffffffffffffffffffffff1673ffffffffffffffffffffffffffffffffffffffff16815260200190815260200160002060003373ffffffffffffffffffffffffffffffffffffffff1673ffffffffffffffffffffffffffffffffffffffff168152602001908152602001600020548211151515610da257600080fd5b610e3182600960008773ffffffffffffffffffffffffffffffffffffffff1673ffffffffffffffffffffffffffffffffffffffff16815260200190815260200160002060003373ffffffffffffffffffffffffffffffffffffffff1673ffffffffffffffffffffffffffffffffffffffff168152602001908152602001600020546117c990919063ffffffff16565b600960008673ffffffffffffffffffffffffffffffffffffffff1673ffffffffffffffffffffffffffffffffffffffff16815260200190815260200160002060003373ffffffffffffffffffffffffffffffffffffffff1673ffffffffffffffffffffffffffffffffffffffff16815260200190815260200160002081905550610ebc8484846117ea565b600190509392505050565b60008173ffffffffffffffffffffffffffffffffffffffff166000809054906101000a900473ffffffffffffffffffffffffffffffffffffffff1673ffffffffffffffffffffffffffffffffffffffff16149050919050565b60006012905090565b60008173ffffffffffffffffffffffffffffffffffffffff16600260009054906101000a900473ffffffffffffffffffffffffffffffffffffffff1673ffffffffffffffffffffffffffffffffffffffff16149050919050565b60008073ffffffffffffffffffffffffffffffffffffffff168373ffffffffffffffffffffffffffffffffffffffff1614151515610fc057600080fd5b61104f82600960003373ffffffffffffffffffffffffffffffffffffffff1673ffffffffffffffffffffffffffffffffffffffff16815260200190815260200160002060008673ffffffffffffffffffffffffffffffffffffffff1673ffffffffffffffffffffffffffffffffffffffff16815260200190815260200160002054611b1790919063ffffffff16565b600960003373ffffffffffffffffffffffffffffffffffffffff1673ffffffffffffffffffffffffffffffffffffffff16815260200190815260200160002060008573ffffffffffffffffffffffffffffffffffffffff1673ffffffffffffffffffffffffffffffffffffffff168152602001908152602001600020819055508273ffffffffffffffffffffffffffffffffffffffff163373ffffffffffffffffffffffffffffffffffffffff167f8c5be1e5ebec7d5bd14f71427d1e84f3dd0314c0f7b2291e5b200ac8c7c3b925600960003373ffffffffffffffffffffffffffffffffffffffff1673ffffffffffffffffffffffffffffffffffffffff16815260200190815260200160002060008773ffffffffffffffffffffffffffffffffffffffff1673ffffffffffffffffffffffffffffffffffffffff168152602001908152602001600020546040518082815260200191505060405180910390a36001905092915050565b60006111c533611602565b15156111d057600080fd5b6111da8383611b38565b6001905092915050565b6000600260009054906101000a900473ffffffffffffffffffffffffffffffffffffffff16905090565b6000600860008373ffffffffffffffffffffffffffffffffffffffff1673ffffffffffffffffffffffffffffffffffffffff168152602001908152602001600020600060028110151561125d57fe5b01549050919050565b6000600b54821115151561127957600080fd5b600a600083815260200190815260200160002060009054906101000a900473ffffffffffffffffffffffffffffffffffffffff169050919050565b6000600754905090565b60008060009054906101000a900473ffffffffffffffffffffffffffffffffffffffff16905090565b606060048054600181600116156101000203166002900480601f01602080910402602001604051908101604052809291908181526020018280546001816001161561010002031660029004801561137f5780601f106113545761010080835404028352916020019161137f565b820191906000526020600020905b81548152906001019060200180831161136257829003601f168201915b5050505050905090565b61139233610ec7565b151561139d57600080fd5b6113a681611cf8565b50565b6113b233611de6565b565b60008073ffffffffffffffffffffffffffffffffffffffff168373ffffffffffffffffffffffffffffffffffffffff16141515156113f157600080fd5b61148082600960003373ffffffffffffffffffffffffffffffffffffffff1673ffffffffffffffffffffffffffffffffffffffff16815260200190815260200160002060008673ffffffffffffffffffffffffffffffffffffffff1673ffffffffffffffffffffffffffffffffffffffff168152602001908152602001600020546117c990919063ffffffff16565b600960003373ffffffffffffffffffffffffffffffffffffffff1673ffffffffffffffffffffffffffffffffffffffff16815260200190815260200160002060008573ffffffffffffffffffffffffffffffffffffffff1673ffffffffffffffffffffffffffffffffffffffff168152602001908152602001600020819055508273ffffffffffffffffffffffffffffffffffffffff163373ffffffffffffffffffffffffffffffffffffffff167f8c5be1e5ebec7d5bd14f71427d1e84f3dd0314c0f7b2291e5b200ac8c7c3b925600960003373ffffffffffffffffffffffffffffffffffffffff1673ffffffffffffffffffffffffffffffffffffffff16815260200190815260200160002060008773ffffffffffffffffffffffffffffffffffffffff1673ffffffffffffffffffffffffffffffffffffffff168152602001908152602001600020546040518082815260200191505060405180910390a36001905092915050565b60006115f83384846117ea565b6001905092915050565b6000600160008373ffffffffffffffffffffffffffffffffffffffff1673ffffffffffffffffffffffffffffffffffffffff16815260200190815260200160002060009054906101000a900460ff169050919050565b6000600960008473ffffffffffffffffffffffffffffffffffffffff1673ffffffffffffffffffffffffffffffffffffffff16815260200190815260200160002060008373ffffffffffffffffffffffffffffffffffffffff1673ffffffffffffffffffffffffffffffffffffffff16815260200190815260200160002054905092915050565b600080600080600192505b600b54831115156117bc578573ffffffffffffffffffffffffffffffffffffffff168273ffffffffffffffffffffffffffffffffffffffff161415156117af57600a600084815260200190815260200160002060009054906101000a900473ffffffffffffffffffffffffffffffffffffffff1691506117698261120e565b90506117ae86836117a961179a61178b8a6005546117c990919063ffffffff16565b86611ed490919063ffffffff16565b89611efe90919063ffffffff16565b6117ea565b5b82806001019350506116ea565b6001935050505092915050565b6000808383111515156117db57600080fd5b82840390508091505092915050565b600860008473ffffffffffffffffffffffffffffffffffffffff1673ffffffffffffffffffffffffffffffffffffffff168152602001908152602001600020600060028110151561183757fe5b0154811115151561184757600080fd5b600073ffffffffffffffffffffffffffffffffffffffff168273ffffffffffffffffffffffffffffffffffffffff161415151561188357600080fd5b6000600860008473ffffffffffffffffffffffffffffffffffffffff1673ffffffffffffffffffffffffffffffffffffffff16815260200190815260200160002060006002811015156118d257fe5b01541115156118e5576118e482611f3c565b5b61194681600860008673ffffffffffffffffffffffffffffffffffffffff1673ffffffffffffffffffffffffffffffffffffffff168152602001908152602001600020600060028110151561193657fe5b01546117c990919063ffffffff16565b600860008573ffffffffffffffffffffffffffffffffffffffff1673ffffffffffffffffffffffffffffffffffffffff168152602001908152602001600020600060028110151561199357fe5b01819055506119f981600860008573ffffffffffffffffffffffffffffffffffffffff1673ffffffffffffffffffffffffffffffffffffffff16815260200190815260200160002060006002811015156119e957fe5b0154611b1790919063ffffffff16565b600860008473ffffffffffffffffffffffffffffffffffffffff1673ffffffffffffffffffffffffffffffffffffffff1681526020019081526020016000206000600281101515611a4657fe5b01819055506000600860008573ffffffffffffffffffffffffffffffffffffffff1673ffffffffffffffffffffffffffffffffffffffff1681526020019081526020016000206000600281101515611a9a57fe5b0154111515611aad57611aac83611ff4565b5b8173ffffffffffffffffffffffffffffffffffffffff168373ffffffffffffffffffffffffffffffffffffffff167fddf252ad1be2c89b69c2b068fc378daa952ba7f163c4a11628f55a4df523b3ef836040518082815260200191505060405180910390a3505050565b6000808284019050838110151515611b2e57600080fd5b8091505092915050565b60008273ffffffffffffffffffffffffffffffffffffffff1614151515611b5e57600080fd5b6000600860008473ffffffffffffffffffffffffffffffffffffffff1673ffffffffffffffffffffffffffffffffffffffff1681526020019081526020016000206000600281101515611bad57fe5b0154111515611bc057611bbf82611f3c565b5b611bd581600554611b1790919063ffffffff16565b600581905550611c3c81600860008573ffffffffffffffffffffffffffffffffffffffff1673ffffffffffffffffffffffffffffffffffffffff1681526020019081526020016000206000600281101515611c2c57fe5b0154611b1790919063ffffffff16565b600860008473ffffffffffffffffffffffffffffffffffffffff1673ffffffffffffffffffffffffffffffffffffffff1681526020019081526020016000206000600281101515611c8957fe5b01819055508173ffffffffffffffffffffffffffffffffffffffff16600073ffffffffffffffffffffffffffffffffffffffff167fddf252ad1be2c89b69c2b068fc378daa952ba7f163c4a11628f55a4df523b3ef836040518082815260200191505060405180910390a35050565b600073ffffffffffffffffffffffffffffffffffffffff168173ffffffffffffffffffffffffffffffffffffffff1614151515611d3457600080fd5b611d3d81611602565b151515611d4957600080fd5b60018060008373ffffffffffffffffffffffffffffffffffffffff1673ffffffffffffffffffffffffffffffffffffffff16815260200190815260200160002060006101000a81548160ff0219169083151502179055508073ffffffffffffffffffffffffffffffffffffffff167f6ae172837ea30b801fbfcdd4108aa1d5bf8ff775444fd70256b44e6bf3dfc3f660405160405180910390a250565b600073ffffffffffffffffffffffffffffffffffffffff168173ffffffffffffffffffffffffffffffffffffffff1614151515611e2257600080fd5b611e2b81611602565b1515611e3657600080fd5b6000600160008373ffffffffffffffffffffffffffffffffffffffff1673ffffffffffffffffffffffffffffffffffffffff16815260200190815260200160002060006101000a81548160ff0219169083151502179055508073ffffffffffffffffffffffffffffffffffffffff167fe94479a9f7e1952cc78f2d6baab678adc1b772d936c6583def489e524cb6669260405160405180910390a250565b600080600083111515611ee657600080fd5b8284811515611ef157fe5b0490508091505092915050565b6000806000841415611f135760009150611f35565b8284029050828482811515611f2457fe5b04141515611f3157600080fd5b8091505b5092915050565b80600a6000600b60008154600101919050819055815260200190815260200160002060006101000a81548173ffffffffffffffffffffffffffffffffffffffff021916908373ffffffffffffffffffffffffffffffffffffffff160217905550600b54600860008373ffffffffffffffffffffffffffffffffffffffff1673ffffffffffffffffffffffffffffffffffffffff1681526020019081526020016000206001600281101515611fec57fe5b018190555050565b600080600860008473ffffffffffffffffffffffffffffffffffffffff1673ffffffffffffffffffffffffffffffffffffffff168152602001908152602001600020600160028110151561204457fe5b015491506001821015612056576121a7565b6001600b54111561213f57600a6000600b54815260200190815260200160002060009054906101000a900473ffffffffffffffffffffffffffffffffffffffff16905080600a600084815260200190815260200160002060006101000a81548173ffffffffffffffffffffffffffffffffffffffff021916908373ffffffffffffffffffffffffffffffffffffffff16021790555081600860008373ffffffffffffffffffffffffffffffffffffffff1673ffffffffffffffffffffffffffffffffffffffff168152602001908152602001600020600160028110151561213957fe5b01819055505b600b60008154809291906001900391905055506000600860008573ffffffffffffffffffffffffffffffffffffffff1673ffffffffffffffffffffffffffffffffffffffff16815260200190815260200160002060016002811015156121a157fe5b01819055505b5050505600a165627a7a7230582004fea4f4967010bae44bed6d11998ca0663dd2289f9b1314bed02fde60aee4960029",
  "source": "pragma solidity ^0.4.24;\n\nimport \"./SimpleToken.sol\";\nimport \"./Buck.sol\";\n\n/**\n * @title ERC20 token\n *\n * @dev Implementation of the basic standard token.\n * https://github.com/ethereum/EIPs/blob/master/EIPS/eip-20.md\n * Originally based on code by OpenZeppelin: https://github.com/OpenZeppelin/openzeppelin-solidity/blob/master/contracts/token/ERC20/ERC20.sol\n */\ncontract Likoin is SimpleToken{\n\n  // the token being converted to\n  Buck private _buck;\n\n  // How many bucks a buyer gets per token.\n  uint256 private _conversionRate;\n\n  // Balances\n  mapping (address => uint256[2]) _balances;\n\n  // Allowances mapping, used to allow an address to spend another address tokens \n  mapping (address => mapping (address => uint256)) private _allowed;\n  \n  // Addresses of holders, list that starts from 1\n  mapping (uint256 => address) private _balanceHolders;\n\n  // Index of last holder in list\n  uint256 _holdersIndex;\n\n  /**\n   * Event for token conversion\n   */\n  event TokensConversion(address indexed beneficiary, uint256 amount);\n\n  /**\n   * Event for an approval\n   */\n  event Approval( address indexed owner, address indexed spender, uint256 value);\n\n\n  /**\n   * @param assignee Address of the entity token depends on \n   * @param buck Address of the token used for conversion\n   * @param conversionRate Number of buck units a buyer gets per tokens\n   * @param name Token name\n   * @param symbol Token symbol\n   */\n  constructor(address assignee, Buck buck, uint256 conversionRate, string name, string symbol) public {\n    require(conversionRate > 0);\n    require(assignee != address(0));\n    require(buck != address(0));\n\n    _owner = msg.sender;\n    _assignee = assignee;\n    _addMinter(msg.sender);\n    _addMinter(assignee);\n\n    _name = name;\n    _symbol = symbol;\n    _buck = buck;\n    _conversionRate = conversionRate;\n  }\n\n  /**\n  * @dev Transfer token to a specified address\n  */\n  function transfer(address to, uint256 value) public returns (bool) {\n    _transfer(msg.sender, to, value);\n    return true;\n  }\n\n  /**\n   * @dev The way in which tokens are converted to bucks.\n   */\n  function convertToBucks(uint256 value) public returns (bool success) {\n    require(balanceOf(msg.sender) >= value);\n\n    _shareToken(msg.sender, value);\n\n    emit TokensConversion(msg.sender, value); \n\n    uint256 bucks = value * _conversionRate;\n    _buck.mint(msg.sender, bucks);\n\n    return true;\n  }\n\n  /**\n   * @dev Approve the passed address to spend the specified amount of tokens on behalf of msg.sender.\n   */\n  function approve(address spender, uint256 value) public returns (bool) {\n    require(spender != address(0));\n\n    _allowed[msg.sender][spender] = value;\n    emit Approval(msg.sender, spender, value);\n    return true;\n  }\n\n  /**\n   * @dev Transfer tokens from one address to another if the address from approved msg.sender\n   */\n  function transferFrom(address from, address to, uint256 value) public returns (bool) {\n    require(value <= _allowed[from][msg.sender]);\n\n    _allowed[from][msg.sender] = _allowed[from][msg.sender].sub(value);\n    _transfer(from, to, value);\n    return true;\n  }\n\n  /**\n   * @dev Increase the amount of tokens that an owner allowed to a spender.\n   */\n  function increaseAllowance(address spender, uint256 addedValue) public returns (bool) {\n    require(spender != address(0));\n\n    _allowed[msg.sender][spender] = (_allowed[msg.sender][spender].add(addedValue));\n    emit Approval(msg.sender, spender, _allowed[msg.sender][spender]);\n    return true;\n  }\n\n  /**\n   * @dev Decrease the amount of tokens that an owner allowed to a spender.\n   */\n  function decreaseAllowance(address spender, uint256 subtractedValue) public returns (bool) {\n    require(spender != address(0));\n\n    _allowed[msg.sender][spender] = (\n      _allowed[msg.sender][spender].sub(subtractedValue));\n    emit Approval(msg.sender, spender, _allowed[msg.sender][spender]);\n    return true;\n  }\n\n  /**\n  * @dev Transfer token for a specified addresses\n  */\n  function _transfer(address from, address to, uint256 value) internal {\n    require(value <= _balances[from][0]);\n    require(to != address(0));\n\n    if(_balances[to][0] <= 0){\n        _addHolder(to);\n    }\n\n    _balances[from][0] = _balances[from][0].sub(value);\n    _balances[to][0] = _balances[to][0].add(value);\n\n    if(_balances[from][0] <= 0){\n        _removeHolder(from);\n    }\n    emit Transfer(from, to, value);\n  }\n\n  /**\n   * @dev Internal function that mints an amount of the token and assigns it to\n   * an account.\n   */\n  function _mint(address account, uint256 value) internal {\n    require(account != 0);\n    if(_balances[account][0] <= 0){\n        _addHolder(account);\n    }\n\n    _totalSupply = _totalSupply.add(value);\n    _balances[account][0] = _balances[account][0].add(value);\n    emit Transfer(address(0), account, value);\n  }\n\n  /**\n   * @dev Share value tokens between all addresses except from \n   */\n  function _shareToken(address from, uint256 value) internal returns (bool) {\n    \n    for(uint i = 1; i <= _holdersIndex; i++){\n      if(to != from){\n        address to = _balanceHolders[i];\n        uint256 bal = balanceOf(to); \n        _transfer(from, to, value.mul(bal.div(_totalSupply.sub(value))));\n        //value * ( balance[to] / (totalSupply-value) )\n      }\n    }\n\n    return true;\n  }\n\n  /**\n   * @dev Internal function that burns an amount of the token of a given\n   * account.\n   */\n  function _burn(address account, uint256 value) internal {\n    require(account != 0);\n    require(value <= _balances[account][0]);\n\n    _totalSupply = _totalSupply.sub(value);\n    _balances[account][0] = _balances[account][0].sub(value);\n    emit Transfer(account, address(0), value);\n  }\n\n  /**\n   * @dev Internal function that burns an amount of the token of a given\n   * account, deducting from the sender's allowance for said account.\n   */\n  function _burnFrom(address account, uint256 value) internal {\n    require(value <= _allowed[account][msg.sender]);\n\n    _allowed[account][msg.sender] = _allowed[account][msg.sender].sub(\n      value);\n    _burn(account, value);\n    if(_balances[account][0] <= 0){\n        _removeHolder(account);\n    }\n  }\n\n  /**\n   * @dev Internal function that adds an holder\n   */\n  function _addHolder(address account) internal {\n    _balanceHolders[++_holdersIndex] = account;\n    _balances[account][1] = _holdersIndex;\n  }\n\n  /**\n   * @dev Internal function that removes an holder\n   */\n  function _removeHolder(address account) internal {\n    uint256 index = _balances[account][1];\n    if (index < 1) return;\n\n    if(_holdersIndex > 1){\n      address last = _balanceHolders[_holdersIndex];\n      _balanceHolders[index] = last;\n      _balances[last][1] = index;\n    }\n    _holdersIndex--;\n    \n    _balances[account][1] = 0;\n  }\n\n  /**\n   * @return the token being used for conversion.\n   */\n  function buck() public view returns(Buck) {\n    return _buck;\n  }\n\n  /**\n   * @return the number of buck units a buyer gets per token.\n   */\n  function conversionRate() public view returns(uint256) {\n    return _conversionRate;\n  }\n\n  /**\n  * @dev Gets the balance of the specified address.\n  */\n  function balanceOf(address account) public view returns (uint256) {\n    return _balances[account][0];\n  }\n\n  /**\n   * @dev Function to check the amount of tokens that an owner allowed to a spender.\n   */\n  function allowance(address owner, address spender) public view returns (uint256) {\n    return _allowed[owner][spender];\n  }\n\n  /**\n   * @dev Function that returns the balanceHolders length \n   */\n  function getBalanceHoldersLength() public view returns (uint256) {\n    return _holdersIndex;\n  }\n\n  /**\n   * @dev Function that returns the address in position i of balanceHolders\n   */\n  function getBalanceHolder(uint256 i) public view returns (address) {\n    require (i <= _holdersIndex);\n    \n    return _balanceHolders[i];\n  }\n}",
  "sourcePath": "/home/miker/truffle-projects/LikeStarter-Project/LikeStarterTruffle/contracts/tokens/Likoin.sol",
  "compiler": {
    "name": "solc",
    "version": "0.4.24+commit.e67f0147.Emscripten.clang"
  },
  "schemaVersion": "2.0.1",
  "updatedAt": "2018-12-01T20:35:48.954Z"
}