{
  "contractName": "Ownable",
  "abi": [
    {
      "constant": true,
      "inputs": [],
      "name": "owner",
      "outputs": [
        {
          "name": "",
          "type": "address"
        }
      ],
      "payable": false,
      "stateMutability": "view",
      "type": "function"
    },
    {
      "constant": true,
      "inputs": [
        {
          "name": "account",
          "type": "address"
        }
      ],
      "name": "isOwner",
      "outputs": [
        {
          "name": "",
          "type": "bool"
        }
      ],
      "payable": false,
      "stateMutability": "view",
      "type": "function"
    }
  ],
  "bytecode": "0x608060405234801561001057600080fd5b506101b1806100206000396000f30060806040526004361061004c576000357c0100000000000000000000000000000000000000000000000000000000900463ffffffff1680632f54bf6e146100515780638da5cb5b146100ac575b600080fd5b34801561005d57600080fd5b50610092600480360381019080803573ffffffffffffffffffffffffffffffffffffffff169060200190929190505050610103565b604051808215151515815260200191505060405180910390f35b3480156100b857600080fd5b506100c161015c565b604051808273ffffffffffffffffffffffffffffffffffffffff1673ffffffffffffffffffffffffffffffffffffffff16815260200191505060405180910390f35b60008173ffffffffffffffffffffffffffffffffffffffff166000809054906101000a900473ffffffffffffffffffffffffffffffffffffffff1673ffffffffffffffffffffffffffffffffffffffff16149050919050565b60008060009054906101000a900473ffffffffffffffffffffffffffffffffffffffff169050905600a165627a7a723058204fc6b1b8a252b8f0742986dac744c112bb12b5edb260c3d4eb8e6eaf7397ebbe0029",
  "source": "pragma solidity ^0.4.24;\n\n/**\n * @title Ownable contract\n */\ncontract Ownable {\n\n  // Contract owner\n  address _owner;\n\n  /**\n   * @dev Modifier to allow only the owner\n   */\n  modifier onlyOwner() {\n    require(isOwner(msg.sender));\n    _;\n  }\n\n  /**\n  * @return Owner\n  */\n  function owner() public view returns (address) {\n    return _owner;\n  }\n\n  /**\n   * @dev Function indicating if account is owner \n   */\n  function isOwner(address account) public view returns (bool) {\n    return _owner == account;\n  }\n\n}",
  "sourcePath": "/home/miker/truffle-workspace/LikeStarterContracts/contracts/properties/Ownable.sol",
  "compiler": {
    "name": "solc",
    "version": "0.4.24+commit.e67f0147.Emscripten.clang"
  },
  "schemaVersion": "3.0.6",
  "updatedAt": "2019-11-16T17:16:55.266Z",
  "devdoc": {
    "methods": {
      "isOwner(address)": {
        "details": "Function indicating if account is owner "
      },
      "owner()": {
        "return": "Owner"
      }
    },
    "title": "Ownable contract"
  },
  "userdoc": {
    "methods": {}
  }
}