{
  "contractName": "Voting",
  "abi": [
    {
      "constant": true,
      "inputs": [
        {
          "name": "account",
          "type": "address"
        }
      ],
      "name": "isOwner",
      "outputs": [
        {
          "name": "",
          "type": "bool"
        }
      ],
      "payable": false,
      "stateMutability": "view",
      "type": "function",
      "signature": "0x2f54bf6e"
    },
    {
      "constant": true,
      "inputs": [],
      "name": "owner",
      "outputs": [
        {
          "name": "",
          "type": "address"
        }
      ],
      "payable": false,
      "stateMutability": "view",
      "type": "function",
      "signature": "0x8da5cb5b"
    },
    {
      "inputs": [
        {
          "name": "token",
          "type": "address"
        },
        {
          "name": "minimumQuorumForProposals",
          "type": "uint256"
        },
        {
          "name": "minutesForDebate",
          "type": "uint256"
        }
      ],
      "payable": false,
      "stateMutability": "nonpayable",
      "type": "constructor",
      "signature": "constructor"
    },
    {
      "anonymous": false,
      "inputs": [
        {
          "indexed": false,
          "name": "proposalID",
          "type": "uint256"
        },
        {
          "indexed": false,
          "name": "artifact",
          "type": "uint256"
        },
        {
          "indexed": false,
          "name": "amount",
          "type": "uint256"
        },
        {
          "indexed": false,
          "name": "description",
          "type": "string"
        }
      ],
      "name": "ProposalAdded",
      "type": "event",
      "signature": "0x6468ce089187f3b77291732ae6c045c50ef5aa253a7bfd523f14a4717a436386"
    },
    {
      "anonymous": false,
      "inputs": [
        {
          "indexed": false,
          "name": "proposalID",
          "type": "uint256"
        },
        {
          "indexed": false,
          "name": "suggestionID",
          "type": "uint256"
        },
        {
          "indexed": false,
          "name": "advisor",
          "type": "address"
        },
        {
          "indexed": false,
          "name": "amount",
          "type": "uint256"
        }
      ],
      "name": "SuggestionAdded",
      "type": "event",
      "signature": "0x9bf08c29d3e870cd29f579e86ce3cebcfa72049aaf11054c3fdf7a46f0777356"
    },
    {
      "anonymous": false,
      "inputs": [
        {
          "indexed": false,
          "name": "proposalID",
          "type": "uint256"
        },
        {
          "indexed": false,
          "name": "suggestionID",
          "type": "uint256"
        },
        {
          "indexed": false,
          "name": "voter",
          "type": "address"
        }
      ],
      "name": "Voted",
      "type": "event",
      "signature": "0xd91ecafccf238642dccd41161308b3eebe62a12bc5819daf5164780c221ec95b"
    },
    {
      "anonymous": false,
      "inputs": [
        {
          "indexed": false,
          "name": "proposalID",
          "type": "uint256"
        },
        {
          "indexed": false,
          "name": "oldSuggestionID",
          "type": "uint256"
        },
        {
          "indexed": false,
          "name": "newSuggestionID",
          "type": "uint256"
        },
        {
          "indexed": false,
          "name": "voter",
          "type": "address"
        }
      ],
      "name": "VoteChanged",
      "type": "event",
      "signature": "0xbdf9b680bb67992cb1bc2642c2b12fdf5e63f1d937f3c05597f0048bad63e701"
    },
    {
      "anonymous": false,
      "inputs": [
        {
          "indexed": false,
          "name": "newMinimumQuorum",
          "type": "uint256"
        },
        {
          "indexed": false,
          "name": "newDebatingPeriodInMinutes",
          "type": "uint256"
        }
      ],
      "name": "ChangeOfRules",
      "type": "event",
      "signature": "0x4e5482c936e2afb137e294316762dfae82eecfc2c31ab15d926766d513570ad7"
    },
    {
      "anonymous": false,
      "inputs": [
        {
          "indexed": false,
          "name": "proposalID",
          "type": "uint256"
        },
        {
          "indexed": false,
          "name": "proposalPassed",
          "type": "bool"
        },
        {
          "indexed": false,
          "name": "finalResult",
          "type": "uint256"
        }
      ],
      "name": "ProposalExecuted",
      "type": "event",
      "signature": "0xec8f304a675f7bb10c5d3eb44ea2444dd65a0da66105763bd6b5bb98aa1461db"
    },
    {
      "constant": false,
      "inputs": [
        {
          "name": "propArtifact",
          "type": "uint256"
        },
        {
          "name": "buckAmount",
          "type": "uint256"
        },
        {
          "name": "artifactDescription",
          "type": "string"
        }
      ],
      "name": "newProposal",
      "outputs": [
        {
          "name": "proposalID",
          "type": "uint256"
        }
      ],
      "payable": false,
      "stateMutability": "nonpayable",
      "type": "function",
      "signature": "0xa2267a3a"
    },
    {
      "constant": false,
      "inputs": [
        {
          "name": "proposalID",
          "type": "uint256"
        },
        {
          "name": "buckAmount",
          "type": "uint256"
        }
      ],
      "name": "newPriceSuggestion",
      "outputs": [
        {
          "name": "suggestionID",
          "type": "uint256"
        }
      ],
      "payable": false,
      "stateMutability": "nonpayable",
      "type": "function",
      "signature": "0x79345879"
    },
    {
      "constant": false,
      "inputs": [
        {
          "name": "proposalID",
          "type": "uint256"
        },
        {
          "name": "suggestionID",
          "type": "uint256"
        }
      ],
      "name": "vote",
      "outputs": [
        {
          "name": "voteID",
          "type": "uint256"
        }
      ],
      "payable": false,
      "stateMutability": "nonpayable",
      "type": "function",
      "signature": "0xb384abef"
    },
    {
      "constant": false,
      "inputs": [
        {
          "name": "proposalID",
          "type": "uint256"
        },
        {
          "name": "newSuggestionID",
          "type": "uint256"
        }
      ],
      "name": "changeVote",
      "outputs": [
        {
          "name": "voteID",
          "type": "uint256"
        }
      ],
      "payable": false,
      "stateMutability": "nonpayable",
      "type": "function",
      "signature": "0xa9593b98"
    },
    {
      "constant": false,
      "inputs": [
        {
          "name": "proposalID",
          "type": "uint256"
        }
      ],
      "name": "executeProposal",
      "outputs": [],
      "payable": false,
      "stateMutability": "nonpayable",
      "type": "function",
      "signature": "0x0d61b519"
    },
    {
      "constant": false,
      "inputs": [
        {
          "name": "minimumQuorumForProposals",
          "type": "uint256"
        },
        {
          "name": "minutesForDebate",
          "type": "uint256"
        }
      ],
      "name": "changeVotingRules",
      "outputs": [],
      "payable": false,
      "stateMutability": "nonpayable",
      "type": "function",
      "signature": "0x158059e2"
    },
    {
      "constant": false,
      "inputs": [
        {
          "name": "am",
          "type": "address"
        }
      ],
      "name": "addArtifactsManager",
      "outputs": [],
      "payable": false,
      "stateMutability": "nonpayable",
      "type": "function",
      "signature": "0x048429d2"
    },
    {
      "constant": true,
      "inputs": [],
      "name": "token",
      "outputs": [
        {
          "name": "",
          "type": "address"
        }
      ],
      "payable": false,
      "stateMutability": "view",
      "type": "function",
      "signature": "0xfc0c546a"
    },
    {
      "constant": true,
      "inputs": [],
      "name": "minimumQuorum",
      "outputs": [
        {
          "name": "",
          "type": "uint256"
        }
      ],
      "payable": false,
      "stateMutability": "view",
      "type": "function",
      "signature": "0x8160f0b5"
    },
    {
      "constant": true,
      "inputs": [],
      "name": "debatingPeriodInMinutes",
      "outputs": [
        {
          "name": "",
          "type": "uint256"
        }
      ],
      "payable": false,
      "stateMutability": "view",
      "type": "function",
      "signature": "0x69bd3436"
    },
    {
      "constant": true,
      "inputs": [
        {
          "name": "artifact",
          "type": "uint256"
        }
      ],
      "name": "getProposalIdByArtifact",
      "outputs": [
        {
          "name": "",
          "type": "uint256"
        }
      ],
      "payable": false,
      "stateMutability": "view",
      "type": "function",
      "signature": "0x4158075d"
    },
    {
      "constant": true,
      "inputs": [
        {
          "name": "proposalID",
          "type": "uint256"
        }
      ],
      "name": "isExecuted",
      "outputs": [
        {
          "name": "",
          "type": "bool"
        }
      ],
      "payable": false,
      "stateMutability": "view",
      "type": "function",
      "signature": "0x76a6bf52"
    },
    {
      "constant": true,
      "inputs": [
        {
          "name": "proposalID",
          "type": "uint256"
        }
      ],
      "name": "getProposalFinalResult",
      "outputs": [
        {
          "name": "",
          "type": "uint256"
        }
      ],
      "payable": false,
      "stateMutability": "view",
      "type": "function",
      "signature": "0xcf8f9e0c"
    },
    {
      "constant": true,
      "inputs": [],
      "name": "numberOfProposals",
      "outputs": [
        {
          "name": "",
          "type": "uint256"
        }
      ],
      "payable": false,
      "stateMutability": "view",
      "type": "function",
      "signature": "0x8d7af473"
    },
    {
      "constant": true,
      "inputs": [
        {
          "name": "proposalID",
          "type": "uint256"
        },
        {
          "name": "suggestionID",
          "type": "uint256"
        }
      ],
      "name": "getProposalSuggestionAmount",
      "outputs": [
        {
          "name": "",
          "type": "uint256"
        }
      ],
      "payable": false,
      "stateMutability": "view",
      "type": "function",
      "signature": "0xd852f295"
    },
    {
      "constant": true,
      "inputs": [
        {
          "name": "proposalID",
          "type": "uint256"
        },
        {
          "name": "suggestionID",
          "type": "uint256"
        }
      ],
      "name": "getProposalSuggestionVotes",
      "outputs": [
        {
          "name": "",
          "type": "uint256"
        }
      ],
      "payable": false,
      "stateMutability": "view",
      "type": "function",
      "signature": "0x23fcff23"
    },
    {
      "constant": true,
      "inputs": [
        {
          "name": "proposalID",
          "type": "uint256"
        },
        {
          "name": "suggestionID",
          "type": "uint256"
        }
      ],
      "name": "getProposalSuggestionVotesQuantity",
      "outputs": [
        {
          "name": "",
          "type": "uint256"
        }
      ],
      "payable": false,
      "stateMutability": "view",
      "type": "function",
      "signature": "0xa1848c98"
    },
    {
      "constant": true,
      "inputs": [
        {
          "name": "proposalID",
          "type": "uint256"
        }
      ],
      "name": "numberOfProposalSuggestions",
      "outputs": [
        {
          "name": "",
          "type": "uint256"
        }
      ],
      "payable": false,
      "stateMutability": "view",
      "type": "function",
      "signature": "0xee1c3f36"
    },
    {
      "constant": true,
      "inputs": [
        {
          "name": "account",
          "type": "address"
        },
        {
          "name": "proposalID",
          "type": "uint256"
        },
        {
          "name": "suggestionID",
          "type": "uint256"
        }
      ],
      "name": "hasVotedFor",
      "outputs": [
        {
          "name": "",
          "type": "bool"
        }
      ],
      "payable": false,
      "stateMutability": "view",
      "type": "function",
      "signature": "0x9c699efd"
    },
    {
      "constant": true,
      "inputs": [
        {
          "name": "account",
          "type": "address"
        }
      ],
      "name": "isArtifactsManager",
      "outputs": [
        {
          "name": "",
          "type": "bool"
        }
      ],
      "payable": false,
      "stateMutability": "view",
      "type": "function",
      "signature": "0x2b757661"
    }
  ],
  "bytecode": "0x608060405234801561001057600080fd5b5060405160608062001ed2833981018060405281019080805190602001909291908051906020019092919080519060200190929190505050336000806101000a81548173ffffffffffffffffffffffffffffffffffffffff021916908373ffffffffffffffffffffffffffffffffffffffff16021790555082600260006101000a81548173ffffffffffffffffffffffffffffffffffffffff021916908373ffffffffffffffffffffffffffffffffffffffff1602179055506100e282826100ea640100000000026401000000009004565b5050506101b7565b6101023361015e640100000000026401000000009004565b151561010d57600080fd5b81600381905550806004819055507f4e5482c936e2afb137e294316762dfae82eecfc2c31ab15d926766d513570ad78282604051808381526020018281526020019250505060405180910390a15050565b60008173ffffffffffffffffffffffffffffffffffffffff166000809054906101000a900473ffffffffffffffffffffffffffffffffffffffff1673ffffffffffffffffffffffffffffffffffffffff16149050919050565b611d0b80620001c76000396000f300608060405260043610610128576000357c0100000000000000000000000000000000000000000000000000000000900463ffffffff168063048429d21461012d5780630d61b51914610170578063158059e21461019d57806323fcff23146101d45780632b7576611461021f5780632f54bf6e1461027a5780634158075d146102d557806369bd34361461031657806376a6bf521461034157806379345879146103865780638160f0b5146103d15780638d7af473146103fc5780638da5cb5b146104275780639c699efd1461047e578063a1848c98146104ed578063a2267a3a14610538578063a9593b98146105c9578063b384abef14610614578063cf8f9e0c1461065f578063d852f295146106a0578063ee1c3f36146106eb578063fc0c546a1461072c575b600080fd5b34801561013957600080fd5b5061016e600480360381019080803573ffffffffffffffffffffffffffffffffffffffff169060200190929190505050610783565b005b34801561017c57600080fd5b5061019b600480360381019080803590602001909291905050506107db565b005b3480156101a957600080fd5b506101d26004803603810190808035906020019092919080359060200190929190505050610aaa565b005b3480156101e057600080fd5b506102096004803603810190808035906020019092919080359060200190929190505050610b0f565b6040518082815260200191505060405180910390f35b34801561022b57600080fd5b50610260600480360381019080803573ffffffffffffffffffffffffffffffffffffffff169060200190929190505050610b78565b604051808215151515815260200191505060405180910390f35b34801561028657600080fd5b506102bb600480360381019080803573ffffffffffffffffffffffffffffffffffffffff169060200190929190505050610bd2565b604051808215151515815260200191505060405180910390f35b3480156102e157600080fd5b5061030060048036038101908080359060200190929190505050610c2b565b6040518082815260200191505060405180910390f35b34801561032257600080fd5b5061032b610c84565b6040518082815260200191505060405180910390f35b34801561034d57600080fd5b5061036c60048036038101908080359060200190929190505050610c8e565b604051808215151515815260200191505060405180910390f35b34801561039257600080fd5b506103bb6004803603810190808035906020019092919080359060200190929190505050610ccb565b6040518082815260200191505060405180910390f35b3480156103dd57600080fd5b506103e6610e8b565b6040518082815260200191505060405180910390f35b34801561040857600080fd5b50610411610e95565b6040518082815260200191505060405180910390f35b34801561043357600080fd5b5061043c610e9f565b604051808273ffffffffffffffffffffffffffffffffffffffff1673ffffffffffffffffffffffffffffffffffffffff16815260200191505060405180910390f35b34801561048a57600080fd5b506104d3600480360381019080803573ffffffffffffffffffffffffffffffffffffffff1690602001909291908035906020019092919080359060200190929190505050610ec8565b604051808215151515815260200191505060405180910390f35b3480156104f957600080fd5b506105226004803603810190808035906020019092919080359060200190929190505050610f60565b6040518082815260200191505060405180910390f35b34801561054457600080fd5b506105b36004803603810190808035906020019092919080359060200190929190803590602001908201803590602001908080601f0160208091040260200160405190810160405280939291908181526020018383808284378201915050505050509192919290505050610fc9565b6040518082815260200191505060405180910390f35b3480156105d557600080fd5b506105fe600480360381019080803590602001909291908035906020019092919050505061142a565b6040518082815260200191505060405180910390f35b34801561062057600080fd5b50610649600480360381019080803590602001909291908035906020019092919050505061186a565b6040518082815260200191505060405180910390f35b34801561066b57600080fd5b5061068a60048036038101908080359060200190929190505050611b26565b6040518082815260200191505060405180910390f35b3480156106ac57600080fd5b506106d56004803603810190808035906020019092919080359060200190929190505050611b77565b6040518082815260200191505060405180910390f35b3480156106f757600080fd5b5061071660048036038101908080359060200190929190505050611be0565b6040518082815260200191505060405180910390f35b34801561073857600080fd5b50610741611c10565b604051808273ffffffffffffffffffffffffffffffffffffffff1673ffffffffffffffffffffffffffffffffffffffff16815260200191505060405180910390f35b61078c33610bd2565b151561079757600080fd5b80600160006101000a81548173ffffffffffffffffffffffffffffffffffffffff021916908373ffffffffffffffffffffffffffffffffffffffff16021790555050565b6000806000806107ea33610bd2565b15156107f557600080fd5b6006548510151561080557600080fd5b6005600086815260200190815260200160002093508360060154421015801561083d57508360070160009054906101000a900460ff16155b151561084857600080fd5b60018460070160006101000a81548160ff02191690831515021790555060009250836002016000848152602001908152602001600020600401549150600190505b83600301548110156108fb578360020160008281526020019081526020016000206004015482019150836002016000848152602001908152602001600020600401548460020160008381526020019081526020016000206004015411156108ee578092505b8080600101915050610889565b600354821115610a255760018460070160016101000a81548160ff021916908315150217905550836002016000848152602001908152602001600020600101548460080181905550600160009054906101000a900473ffffffffffffffffffffffffffffffffffffffff1673ffffffffffffffffffffffffffffffffffffffff1663ad45e637856000015486600801546040518363ffffffff167c01000000000000000000000000000000000000000000000000000000000281526004018083815260200182815260200192505050602060405180830381600087803b1580156109e457600080fd5b505af11580156109f8573d6000803e3d6000fd5b505050506040513d6020811015610a0e57600080fd5b810190808051906020019092919050505050610a43565b60008460070160016101000a81548160ff0219169083151502179055505b7fec8f304a675f7bb10c5d3eb44ea2444dd65a0da66105763bd6b5bb98aa1461db858560070160019054906101000a900460ff1686600801546040518084815260200183151515158152602001828152602001935050505060405180910390a15050505050565b610ab333610bd2565b1515610abe57600080fd5b81600381905550806004819055507f4e5482c936e2afb137e294316762dfae82eecfc2c31ab15d926766d513570ad78282604051808381526020018281526020019250505060405180910390a15050565b600060065483101515610b2157600080fd5b600560008481526020019081526020016000206003015482101515610b4557600080fd5b60056000848152602001908152602001600020600201600083815260200190815260200160002060030154905092915050565b60008173ffffffffffffffffffffffffffffffffffffffff16600160009054906101000a900473ffffffffffffffffffffffffffffffffffffffff1673ffffffffffffffffffffffffffffffffffffffff16149050919050565b60008173ffffffffffffffffffffffffffffffffffffffff166000809054906101000a900473ffffffffffffffffffffffffffffffffffffffff1673ffffffffffffffffffffffffffffffffffffffff16149050919050565b600080600090505b600654811015610c70578260056000838152602001908152602001600020600001541415610c6357809150610c7e565b8080600101915050610c33565b60001515610c7d57600080fd5b5b50919050565b6000600454905090565b600060065482101515610ca057600080fd5b6005600083815260200190815260200160002060070160009054906101000a900460ff169050919050565b600080600084600060065482101515610ce357600080fd5b6005600083815260200190815260200160002090508060070160009054906101000a900460ff16151515610d1657600080fd5b60008160040160003373ffffffffffffffffffffffffffffffffffffffff1673ffffffffffffffffffffffffffffffffffffffff168152602001908152602001600020541180610d6b5750610d6a33610b78565b5b1515610d7657600080fd5b6005600088815260200190815260200160002093508360030160008154809291906001019190505594508360020160008681526020019081526020016000209250338360000160006101000a81548173ffffffffffffffffffffffffffffffffffffffff021916908373ffffffffffffffffffffffffffffffffffffffff1602179055508583600101819055507f9bf08c29d3e870cd29f579e86ce3cebcfa72049aaf11054c3fdf7a46f077735687863389604051808581526020018481526020018373ffffffffffffffffffffffffffffffffffffffff1673ffffffffffffffffffffffffffffffffffffffff16815260200182815260200194505050505060405180910390a18494505050505092915050565b6000600354905090565b6000600654905090565b60008060009054906101000a900473ffffffffffffffffffffffffffffffffffffffff16905090565b600060065483101515610eda57600080fd5b600560008481526020019081526020016000206003015482101515610efe57600080fd5b816005600085815260200190815260200160002060050160008673ffffffffffffffffffffffffffffffffffffffff1673ffffffffffffffffffffffffffffffffffffffff168152602001908152602001600020600101541490509392505050565b600060065483101515610f7257600080fd5b600560008481526020019081526020016000206003015482101515610f9657600080fd5b60056000848152602001908152602001600020600201600083815260200190815260200160002060040154905092915050565b600080600080610fd833610b78565b1515610fe357600080fd5b60066000815480929190600101919050559350600560008581526020019081526020016000209250868360000181905550600191505b600260009054906101000a900473ffffffffffffffffffffffffffffffffffffffff1673ffffffffffffffffffffffffffffffffffffffff16630f3856566040518163ffffffff167c0100000000000000000000000000000000000000000000000000000000028152600401602060405180830381600087803b15801561109f57600080fd5b505af11580156110b3573d6000803e3d6000fd5b505050506040513d60208110156110c957600080fd5b8101908080519060200190929190505050821115156112fa57600260009054906101000a900473ffffffffffffffffffffffffffffffffffffffff1673ffffffffffffffffffffffffffffffffffffffff1663786d358d836040518263ffffffff167c010000000000000000000000000000000000000000000000000000000002815260040180828152602001915050602060405180830381600087803b15801561117357600080fd5b505af1158015611187573d6000803e3d6000fd5b505050506040513d602081101561119d57600080fd5b81019080805190602001909291905050509050600260009054906101000a900473ffffffffffffffffffffffffffffffffffffffff1673ffffffffffffffffffffffffffffffffffffffff166370a08231826040518263ffffffff167c0100000000000000000000000000000000000000000000000000000000028152600401808273ffffffffffffffffffffffffffffffffffffffff1673ffffffffffffffffffffffffffffffffffffffff168152602001915050602060405180830381600087803b15801561126d57600080fd5b505af1158015611281573d6000803e3d6000fd5b505050506040513d602081101561129757600080fd5b81019080805190602001909291905050508360040160008373ffffffffffffffffffffffffffffffffffffffff1673ffffffffffffffffffffffffffffffffffffffff168152602001908152602001600020819055508180600101925050611019565b610e10600454024201836006018190555084836001019080519060200190611323929190611c3a565b5061132e8487610ccb565b5060008360070160006101000a81548160ff02191690831515021790555060008360070160016101000a81548160ff0219169083151502179055507f6468ce089187f3b77291732ae6c045c50ef5aa253a7bfd523f14a4717a436386848888886040518085815260200184815260200183815260200180602001828103825283818151815260200191508051906020019080838360005b838110156113e05780820151818401526020810190506113c5565b50505050905090810190601f16801561140d5780820380516001836020036101000a031916815260200191505b509550505050505060405180910390a18393505050509392505050565b60008060008060008060008060008a60006006548210151561144b57600080fd5b6005600083815260200190815260200160002090508060070160009054906101000a900460ff1615151561147e57600080fd5b60008160040160003373ffffffffffffffffffffffffffffffffffffffff1673ffffffffffffffffffffffffffffffffffffffff1681526020019081526020016000205411806114d357506114d233610b78565b5b15156114de57600080fd5b600560008e815260200190815260200160002099508960050160003373ffffffffffffffffffffffffffffffffffffffff1673ffffffffffffffffffffffffffffffffffffffff16815260200190815260200160002098508860000160009054906101000a900460ff16151561155357600080fd5b8b89600101541415151561156657600080fd5b89600301548c10151561157857600080fd5b886001015497508b896001018190555089600201600089815260200190815260200160002096508960020160008d81526020019081526020016000209550886002015494506001876003015411156116aa578660020160006001896003015403815260200190815260200160002060009054906101000a900473ffffffffffffffffffffffffffffffffffffffff1693508387600201600087815260200190815260200160002060006101000a81548173ffffffffffffffffffffffffffffffffffffffff021916908373ffffffffffffffffffffffffffffffffffffffff1602179055508960050160008573ffffffffffffffffffffffffffffffffffffffff1673ffffffffffffffffffffffffffffffffffffffff16815260200190815260200160002092508483600201819055505b8660030160008154809291906001900391905055508960040160003373ffffffffffffffffffffffffffffffffffffffff1673ffffffffffffffffffffffffffffffffffffffff168152602001908152602001600020548760040160008282540392505081905550856003016000815480929190600101919050558960020181905550338660020160008b60020154815260200190815260200160002060006101000a81548173ffffffffffffffffffffffffffffffffffffffff021916908373ffffffffffffffffffffffffffffffffffffffff1602179055508960040160003373ffffffffffffffffffffffffffffffffffffffff1673ffffffffffffffffffffffffffffffffffffffff1681526020019081526020016000205486600401600082825401925050819055507fbdf9b680bb67992cb1bc2642c2b12fdf5e63f1d937f3c05597f0048bad63e7018d898e33604051808581526020018481526020018381526020018273ffffffffffffffffffffffffffffffffffffffff1673ffffffffffffffffffffffffffffffffffffffff16815260200194505050505060405180910390a188600201549a505050505050505050505092915050565b6000806000808560006006548210151561188357600080fd5b6005600083815260200190815260200160002090508060070160009054906101000a900460ff161515156118b657600080fd5b60008160040160003373ffffffffffffffffffffffffffffffffffffffff1673ffffffffffffffffffffffffffffffffffffffff16815260200190815260200160002054118061190b575061190a33610b78565b5b151561191657600080fd5b6005600089815260200190815260200160002094508460050160003373ffffffffffffffffffffffffffffffffffffffff1673ffffffffffffffffffffffffffffffffffffffff16815260200190815260200160002093508360000160009054906101000a900460ff1615151561198c57600080fd5b84600301548710151561199e57600080fd5b846002016000888152602001908152602001600020925060018460000160006101000a81548160ff021916908315150217905550868460010181905550826003016000815480929190600101919050558460020181905550338360020160008660020154815260200190815260200160002060006101000a81548173ffffffffffffffffffffffffffffffffffffffff021916908373ffffffffffffffffffffffffffffffffffffffff1602179055508460040160003373ffffffffffffffffffffffffffffffffffffffff1673ffffffffffffffffffffffffffffffffffffffff1681526020019081526020016000205483600401600082825401925050819055507fd91ecafccf238642dccd41161308b3eebe62a12bc5819daf5164780c221ec95b888833604051808481526020018381526020018273ffffffffffffffffffffffffffffffffffffffff1673ffffffffffffffffffffffffffffffffffffffff168152602001935050505060405180910390a183600201549550505050505092915050565b600060065482101515611b3857600080fd5b611b4182610c8e565b15611b645760056000838152602001908152602001600020600801549050611b72565b60001515611b7157600080fd5b5b919050565b600060065483101515611b8957600080fd5b600560008481526020019081526020016000206003015482101515611bad57600080fd5b60056000848152602001908152602001600020600201600083815260200190815260200160002060010154905092915050565b600060065482101515611bf257600080fd5b60056000838152602001908152602001600020600301549050919050565b6000600260009054906101000a900473ffffffffffffffffffffffffffffffffffffffff16905090565b828054600181600116156101000203166002900490600052602060002090601f016020900481019282601f10611c7b57805160ff1916838001178555611ca9565b82800160010185558215611ca9579182015b82811115611ca8578251825591602001919060010190611c8d565b5b509050611cb69190611cba565b5090565b611cdc91905b80821115611cd8576000816000905550600101611cc0565b5090565b905600a165627a7a72305820cd6bd9374f5b1c22d326428703eaead2fa11cb855a5cf11873042d730561a1a90029",
  "source": "pragma solidity ^0.4.24;\n\nimport \"./properties/Ownable.sol\";\nimport \"./tokens/Likoin.sol\";\nimport \"./ArtifactsManager.sol\";\n\n/**\n * @title Contract used to vote Artifacts proposals\n */\ncontract Voting is Ownable {\n\n  // The artifacts manager\n  ArtifactsManager private _artifactsManager;\n\n  // The token used for votes weights\n  Likoin private _token;\n\n  // The number of votes quantity able to validate a proposal\n  uint private _minimumQuorum;\n  \n  // Minimum time before execution\n  uint private _debatingPeriodInMinutes;\n  \n  // List of Proposals for Artifact generated by assignee\n  mapping (uint => Proposal) private _proposals;\n \n  // Number of Proposals\n  uint private _numProposals;\n\n  /**\n   * Event for a proposal added\n   */\n  event ProposalAdded(uint proposalID, uint artifact, uint amount, string description);\n  \n  /**\n   * Event for a suggestion added\n   */\n  event SuggestionAdded(uint proposalID, uint suggestionID, address advisor, uint amount);\n  \n  /**\n   * Event for a vote\n   */\n  event Voted(uint proposalID, uint suggestionID, address voter);\n  \n  /**\n   * Event for a vote changed\n   */\n  event VoteChanged(uint proposalID, uint oldSuggestionID, uint newSuggestionID, address voter);\n  \n  /**\n   * Event for a change in rules\n   */\n  event ChangeOfRules(uint newMinimumQuorum, uint newDebatingPeriodInMinutes);\n  \n  /**\n   * Event for an execution\n   */\n  event ProposalExecuted(uint proposalID, bool proposalPassed, uint finalResult);\n  \n  /**\n   * Structure used to manipulate a proposal for an artifact\n   */\n  struct Proposal {\n    uint proposedArtifact;\n    string description;\n    mapping (uint => PriceSuggestion) suggestions;\n    uint numSuggestions;\n    mapping (address => uint256) balancesSnapshot;\n    mapping (address => Vote) votes;\n\n    uint minExecutionDate;\n    bool executed;\n\n    bool proposalPassed;\n    uint finalResult;\n  }\n\n  /**\n   * Structure used to manipulate a suggestion for a price\n   */\n  struct PriceSuggestion {\n    address advisor;\n    uint amount;\n    mapping (uint => address) votes;\n    uint numVotes;\n    uint votesQuantity;\n  }\n\n  /**\n   * Structure used to manipulate a vote of a single member\n   */\n  struct Vote {\n    bool voted;\n    uint suggestionID;\n    uint voteID;\n  }\n\n  /**\n   * @dev Modifier to allow only the ArtifactsManager contract\n   */\n  modifier onlyArtifactsManager() {\n    require(isArtifactsManager(msg.sender));\n    _;\n  }\n\n  /**\n   * @dev Modifier to allow only members when the proposal has not been executed\n   */\n  modifier onlyMembersAndNotExecuted(uint proposalID) {\n    require(proposalID < _numProposals);\n    Proposal storage p = _proposals[proposalID];  \n    require (!p.executed);\n    require (p.balancesSnapshot[msg.sender] > 0 || isArtifactsManager(msg.sender));\n    _;\n  }\n\n  /**\n   * @param token Address of the token used for weight\n   * @param minimumQuorumForProposals Number used to validate a vote in the execution\n   * @param minutesForDebate Hours required before execution\n   */\n  constructor (Likoin token, uint minimumQuorumForProposals, uint minutesForDebate) public {\n    _owner = msg.sender;\n    _token = token;\n\n    changeVotingRules(minimumQuorumForProposals, minutesForDebate);\n  }\n\n  /**\n   * @dev Add Proposal\n   */\n  function newProposal(uint propArtifact, uint buckAmount, string memory artifactDescription) onlyArtifactsManager public returns (uint proposalID) {\n    proposalID = _numProposals++;\n    Proposal storage p = _proposals[proposalID];\n    p.proposedArtifact = propArtifact;\n    for(uint i = 1; i <= _token.getBalanceHoldersLength(); i++){\n      address holder = _token.getBalanceHolder(i);\n      p.balancesSnapshot[holder] = _token.balanceOf(holder); \n    }\n    p.minExecutionDate = now + _debatingPeriodInMinutes * 1 hours;\n    p.description = artifactDescription;\n    \n    newPriceSuggestion(proposalID, buckAmount);\n\n    p.executed = false;\n    p.proposalPassed = false;\n    emit ProposalAdded(proposalID, propArtifact, buckAmount, artifactDescription);\n  \n    return proposalID;\n  }\n\n  /**\n   * @dev Add Suggestion\n   */\n  function newPriceSuggestion(uint proposalID, uint buckAmount) public onlyMembersAndNotExecuted(proposalID) returns (uint suggestionID) {\n    Proposal storage p = _proposals[proposalID];\n\n    suggestionID = p.numSuggestions++;\n    PriceSuggestion storage s = p.suggestions[suggestionID];\n    s.advisor = msg.sender;\n    s.amount = buckAmount;\n\n    emit SuggestionAdded(proposalID, suggestionID, msg.sender, buckAmount);\n    return suggestionID;\n  }\n\n  /**\n   * @dev Log a vote for a proposal\n   */\n  function vote(uint proposalID, uint suggestionID) public onlyMembersAndNotExecuted(proposalID) returns (uint voteID) {\n    Proposal storage p = _proposals[proposalID];\n    Vote storage v = p.votes[msg.sender];\n    require(!v.voted);\n\n    require(suggestionID < p.numSuggestions);\n    PriceSuggestion storage s = p.suggestions[suggestionID];\n\n    v.voted = true;  \n    v.suggestionID = suggestionID;    \n    v.voteID = s.numVotes++;\n    s.votes[v.voteID] = msg.sender;\n    s.votesQuantity += p.balancesSnapshot[msg.sender];\n\n    emit Voted(proposalID, suggestionID, msg.sender);\n    return v.voteID;\n  }\n\n  /**\n   * @dev Change vote for a proposal\n   */\n  function changeVote(uint proposalID, uint newSuggestionID) public onlyMembersAndNotExecuted(proposalID) returns (uint voteID) {\n    Proposal storage p = _proposals[proposalID];\n    Vote storage v = p.votes[msg.sender];\n    require(v.voted);\n    require (v.suggestionID != newSuggestionID);    \n    require(newSuggestionID < p.numSuggestions);\n    \n    uint oldSuggestionID = v.suggestionID;\n    v.suggestionID = newSuggestionID;\n    PriceSuggestion storage oldSuggestion = p.suggestions[oldSuggestionID];\n    PriceSuggestion storage newSuggestion = p.suggestions[newSuggestionID];\n\n    uint256 index = v.voteID;\n    if(oldSuggestion.numVotes > 1){\n      address last = oldSuggestion.votes[oldSuggestion.numVotes - 1];\n      oldSuggestion.votes[index] = last;\n      Vote storage vLast = p.votes[last];\n      vLast.voteID = index;\n    }\n    oldSuggestion.numVotes--;\n    oldSuggestion.votesQuantity -= p.balancesSnapshot[msg.sender];\n\n    v.voteID = newSuggestion.numVotes++;\n    newSuggestion.votes[v.voteID] = msg.sender;\n    newSuggestion.votesQuantity += p.balancesSnapshot[msg.sender];\n\n    // Create a log of this event\n    emit VoteChanged(proposalID, oldSuggestionID, newSuggestionID, msg.sender);\n    return v.voteID;\n  }\n\n  /**\n   * @dev Finish vote, count the votes proposal and execute\n   */\n  function executeProposal(uint proposalID) public onlyOwner {\n    require(proposalID < _numProposals);\n    Proposal storage p = _proposals[proposalID];\n    require(now >= p.minExecutionDate && !p.executed);                         \n\n    p.executed = true;\n    uint256 tmpMax = 0;\n    uint256 tmpTotal = p.suggestions[tmpMax].votesQuantity;\n    for(uint i = 1; i < p.numSuggestions; i++){\n      tmpTotal += p.suggestions[i].votesQuantity;\n      if(p.suggestions[i].votesQuantity > p.suggestions[tmpMax].votesQuantity) {\n        tmpMax = i;\n      }\n    }\n    \n    if(tmpTotal > _minimumQuorum){\n      p.proposalPassed = true;\n      p.finalResult = p.suggestions[tmpMax].amount;\n      _artifactsManager.approveArtifact(p.proposedArtifact, p.finalResult);\n    } else {\n      p.proposalPassed = false;\n    }\n\n    emit ProposalExecuted(proposalID, p.proposalPassed, p.finalResult);\n  }\n\n  /**\n   * @dev Change voting rules\n   */\n  function changeVotingRules(uint minimumQuorumForProposals, uint minutesForDebate) public onlyOwner {\n    _minimumQuorum = minimumQuorumForProposals;\n    _debatingPeriodInMinutes = minutesForDebate;\n\n    emit ChangeOfRules(minimumQuorumForProposals, minutesForDebate);\n  }\n\n  /**\n   * @dev Add Artifacts Manager\n   */\n  function addArtifactsManager(ArtifactsManager am) public onlyOwner {\n    _artifactsManager = am;\n  }\n\n  /**\n   * @return The token being used\n   */\n  function token() public view returns(Likoin) {\n    return _token;\n  }\n\n  /**\n  * @return Minimum Quorum\n  */\n  function minimumQuorum() public view returns (uint) {\n    return _minimumQuorum;\n  }\n\n  /**\n  * @return Debating period in hours\n  */\n  function debatingPeriodInMinutes() public view returns (uint) {\n    return _debatingPeriodInMinutes;\n  }\n\n  /**\n  * @return Get proposal id by artifact\n  */\n  function getProposalIdByArtifact(uint artifact) public view returns (uint) {\n    for(uint i = 0; i < _numProposals; i++ ) {\n      if(_proposals[i].proposedArtifact == artifact ){\n        return i;\n      }\n    }\n    require(false);\n  }\n\n  /**\n  * @return true if a proposal is executed\n  */\n  function isExecuted(uint proposalID) public view returns (bool) {\n    require(proposalID < _numProposals);\n    return _proposals[proposalID].executed;\n  }  \n\n  /**\n  * @return Get proposal final result\n  */\n  function getProposalFinalResult(uint proposalID) public view returns (uint) {\n    require(proposalID < _numProposals);\n    if(isExecuted(proposalID)){\n      return _proposals[proposalID].finalResult;\n    }\n    else{\n      require(false);\n    }\n  }\n\n  /**\n  * @return Number of proposals\n  */\n  function numberOfProposals() public view returns (uint) {\n    return _numProposals;\n  }\n\n  /**\n  * @return Amount of proposal suggestion\n  */\n  function getProposalSuggestionAmount(uint proposalID, uint suggestionID) public view returns (uint) {\n    require(proposalID < _numProposals);\n    require(suggestionID < _proposals[proposalID].numSuggestions);\n    return _proposals[proposalID].suggestions[suggestionID].amount;\n  }\n\n  /**\n  * @return Number of votes of proposal suggestion\n  */\n  function getProposalSuggestionVotes(uint proposalID, uint suggestionID) public view returns (uint) {\n    require(proposalID < _numProposals);\n    require(suggestionID < _proposals[proposalID].numSuggestions);\n    return _proposals[proposalID].suggestions[suggestionID].numVotes;\n  }\n\n  /**\n  * @return Quantity of votes of proposal suggestion\n  */\n  function getProposalSuggestionVotesQuantity(uint proposalID, uint suggestionID) public view returns (uint) {\n    require(proposalID < _numProposals);\n    require(suggestionID < _proposals[proposalID].numSuggestions);\n    return _proposals[proposalID].suggestions[suggestionID].votesQuantity;\n  }\n\n  /**\n  * @return Number of proposals suggestions\n  */\n  function numberOfProposalSuggestions(uint proposalID) public view returns (uint) {\n    require(proposalID < _numProposals);\n    return _proposals[proposalID].numSuggestions;\n  }\n\n  /**\n  * @return true if account voted for suggestionID in proposalID\n  */\n  function hasVotedFor(address account, uint proposalID, uint suggestionID) public view returns (bool) {\n    require(proposalID < _numProposals);\n    require(suggestionID < _proposals[proposalID].numSuggestions);\n    return _proposals[proposalID].votes[account].suggestionID == suggestionID;\n  }\n\n  /**\n   * @dev Function indicating if account is ArtifactsManager contract \n   */\n  function isArtifactsManager(address account) public view returns (bool) {\n    return _artifactsManager == account;\n  }\n}\n\n\n",
  "sourcePath": "/home/miker/truffle-workspace/LikeStarterContracts/contracts/Voting.sol",
  "compiler": {
    "name": "solc",
    "version": "0.4.24+commit.e67f0147.Emscripten.clang"
  },
  "schemaVersion": "3.0.6",
  "updatedAt": "2019-11-16T17:18:53.841Z",
  "devdoc": {
    "methods": {
      "addArtifactsManager(address)": {
        "details": "Add Artifacts Manager"
      },
      "changeVote(uint256,uint256)": {
        "details": "Change vote for a proposal"
      },
      "changeVotingRules(uint256,uint256)": {
        "details": "Change voting rules"
      },
      "debatingPeriodInMinutes()": {
        "return": "Debating period in hours"
      },
      "executeProposal(uint256)": {
        "details": "Finish vote, count the votes proposal and execute"
      },
      "getProposalFinalResult(uint256)": {
        "return": "Get proposal final result"
      },
      "getProposalIdByArtifact(uint256)": {
        "return": "Get proposal id by artifact"
      },
      "getProposalSuggestionAmount(uint256,uint256)": {
        "return": "Amount of proposal suggestion"
      },
      "getProposalSuggestionVotes(uint256,uint256)": {
        "return": "Number of votes of proposal suggestion"
      },
      "getProposalSuggestionVotesQuantity(uint256,uint256)": {
        "return": "Quantity of votes of proposal suggestion"
      },
      "hasVotedFor(address,uint256,uint256)": {
        "return": "true if account voted for suggestionID in proposalID"
      },
      "isArtifactsManager(address)": {
        "details": "Function indicating if account is ArtifactsManager contract "
      },
      "isExecuted(uint256)": {
        "return": "true if a proposal is executed"
      },
      "isOwner(address)": {
        "details": "Function indicating if account is owner "
      },
      "minimumQuorum()": {
        "return": "Minimum Quorum"
      },
      "newPriceSuggestion(uint256,uint256)": {
        "details": "Add Suggestion"
      },
      "newProposal(uint256,uint256,string)": {
        "details": "Add Proposal"
      },
      "numberOfProposalSuggestions(uint256)": {
        "return": "Number of proposals suggestions"
      },
      "numberOfProposals()": {
        "return": "Number of proposals"
      },
      "owner()": {
        "return": "Owner"
      },
      "token()": {
        "return": "The token being used"
      },
      "vote(uint256,uint256)": {
        "details": "Log a vote for a proposal"
      }
    },
    "title": "Contract used to vote Artifacts proposals"
  },
  "userdoc": {
    "methods": {}
  }
}