{
  "contractName": "Voting",
  "abi": [
    {
      "constant": true,
      "inputs": [
        {
          "name": "account",
          "type": "address"
        }
      ],
      "name": "isOwner",
      "outputs": [
        {
          "name": "",
          "type": "bool"
        }
      ],
      "payable": false,
      "stateMutability": "view",
      "type": "function"
    },
    {
      "constant": true,
      "inputs": [],
      "name": "owner",
      "outputs": [
        {
          "name": "",
          "type": "address"
        }
      ],
      "payable": false,
      "stateMutability": "view",
      "type": "function"
    },
    {
      "inputs": [
        {
          "name": "token",
          "type": "address"
        },
        {
          "name": "minimumQuorumForProposals",
          "type": "uint256"
        },
        {
          "name": "minutesForDebate",
          "type": "uint256"
        }
      ],
      "payable": false,
      "stateMutability": "nonpayable",
      "type": "constructor"
    },
    {
      "anonymous": false,
      "inputs": [
        {
          "indexed": false,
          "name": "proposalID",
          "type": "uint256"
        },
        {
          "indexed": false,
          "name": "artifact",
          "type": "uint256"
        },
        {
          "indexed": false,
          "name": "amount",
          "type": "uint256"
        },
        {
          "indexed": false,
          "name": "description",
          "type": "string"
        }
      ],
      "name": "ProposalAdded",
      "type": "event"
    },
    {
      "anonymous": false,
      "inputs": [
        {
          "indexed": false,
          "name": "proposalID",
          "type": "uint256"
        },
        {
          "indexed": false,
          "name": "suggestionID",
          "type": "uint256"
        },
        {
          "indexed": false,
          "name": "advisor",
          "type": "address"
        },
        {
          "indexed": false,
          "name": "amount",
          "type": "uint256"
        }
      ],
      "name": "SuggestionAdded",
      "type": "event"
    },
    {
      "anonymous": false,
      "inputs": [
        {
          "indexed": false,
          "name": "proposalID",
          "type": "uint256"
        },
        {
          "indexed": false,
          "name": "suggestionID",
          "type": "uint256"
        },
        {
          "indexed": false,
          "name": "voter",
          "type": "address"
        }
      ],
      "name": "Voted",
      "type": "event"
    },
    {
      "anonymous": false,
      "inputs": [
        {
          "indexed": false,
          "name": "proposalID",
          "type": "uint256"
        },
        {
          "indexed": false,
          "name": "oldSuggestionID",
          "type": "uint256"
        },
        {
          "indexed": false,
          "name": "newSuggestionID",
          "type": "uint256"
        },
        {
          "indexed": false,
          "name": "voter",
          "type": "address"
        }
      ],
      "name": "VoteChanged",
      "type": "event"
    },
    {
      "anonymous": false,
      "inputs": [
        {
          "indexed": false,
          "name": "newMinimumQuorum",
          "type": "uint256"
        },
        {
          "indexed": false,
          "name": "newDebatingPeriodInMinutes",
          "type": "uint256"
        }
      ],
      "name": "ChangeOfRules",
      "type": "event"
    },
    {
      "anonymous": false,
      "inputs": [
        {
          "indexed": false,
          "name": "proposalID",
          "type": "uint256"
        },
        {
          "indexed": false,
          "name": "proposalPassed",
          "type": "bool"
        },
        {
          "indexed": false,
          "name": "finalResult",
          "type": "uint256"
        }
      ],
      "name": "ProposalExecuted",
      "type": "event"
    },
    {
      "constant": false,
      "inputs": [
        {
          "name": "propArtifact",
          "type": "uint256"
        },
        {
          "name": "buckAmount",
          "type": "uint256"
        },
        {
          "name": "artifactDescription",
          "type": "string"
        }
      ],
      "name": "newProposal",
      "outputs": [
        {
          "name": "proposalID",
          "type": "uint256"
        }
      ],
      "payable": false,
      "stateMutability": "nonpayable",
      "type": "function"
    },
    {
      "constant": false,
      "inputs": [
        {
          "name": "proposalID",
          "type": "uint256"
        },
        {
          "name": "buckAmount",
          "type": "uint256"
        }
      ],
      "name": "newPriceSuggestion",
      "outputs": [
        {
          "name": "suggestionID",
          "type": "uint256"
        }
      ],
      "payable": false,
      "stateMutability": "nonpayable",
      "type": "function"
    },
    {
      "constant": false,
      "inputs": [
        {
          "name": "proposalID",
          "type": "uint256"
        },
        {
          "name": "suggestionID",
          "type": "uint256"
        }
      ],
      "name": "vote",
      "outputs": [
        {
          "name": "voteID",
          "type": "uint256"
        }
      ],
      "payable": false,
      "stateMutability": "nonpayable",
      "type": "function"
    },
    {
      "constant": false,
      "inputs": [
        {
          "name": "proposalID",
          "type": "uint256"
        },
        {
          "name": "newSuggestionID",
          "type": "uint256"
        }
      ],
      "name": "changeVote",
      "outputs": [
        {
          "name": "voteID",
          "type": "uint256"
        }
      ],
      "payable": false,
      "stateMutability": "nonpayable",
      "type": "function"
    },
    {
      "constant": false,
      "inputs": [
        {
          "name": "proposalID",
          "type": "uint256"
        }
      ],
      "name": "executeProposal",
      "outputs": [],
      "payable": false,
      "stateMutability": "nonpayable",
      "type": "function"
    },
    {
      "constant": false,
      "inputs": [
        {
          "name": "minimumQuorumForProposals",
          "type": "uint256"
        },
        {
          "name": "minutesForDebate",
          "type": "uint256"
        }
      ],
      "name": "changeVotingRules",
      "outputs": [],
      "payable": false,
      "stateMutability": "nonpayable",
      "type": "function"
    },
    {
      "constant": false,
      "inputs": [
        {
          "name": "am",
          "type": "address"
        }
      ],
      "name": "addArtifactsManager",
      "outputs": [],
      "payable": false,
      "stateMutability": "nonpayable",
      "type": "function"
    },
    {
      "constant": true,
      "inputs": [],
      "name": "token",
      "outputs": [
        {
          "name": "",
          "type": "address"
        }
      ],
      "payable": false,
      "stateMutability": "view",
      "type": "function"
    },
    {
      "constant": true,
      "inputs": [],
      "name": "minimumQuorum",
      "outputs": [
        {
          "name": "",
          "type": "uint256"
        }
      ],
      "payable": false,
      "stateMutability": "view",
      "type": "function"
    },
    {
      "constant": true,
      "inputs": [],
      "name": "debatingPeriodInMinutes",
      "outputs": [
        {
          "name": "",
          "type": "uint256"
        }
      ],
      "payable": false,
      "stateMutability": "view",
      "type": "function"
    },
    {
      "constant": true,
      "inputs": [
        {
          "name": "artifact",
          "type": "uint256"
        }
      ],
      "name": "getProposalIdByArtifact",
      "outputs": [
        {
          "name": "",
          "type": "uint256"
        }
      ],
      "payable": false,
      "stateMutability": "view",
      "type": "function"
    },
    {
      "constant": true,
      "inputs": [
        {
          "name": "proposalID",
          "type": "uint256"
        }
      ],
      "name": "isExecuted",
      "outputs": [
        {
          "name": "",
          "type": "bool"
        }
      ],
      "payable": false,
      "stateMutability": "view",
      "type": "function"
    },
    {
      "constant": true,
      "inputs": [
        {
          "name": "proposalID",
          "type": "uint256"
        }
      ],
      "name": "getProposalFinalResult",
      "outputs": [
        {
          "name": "",
          "type": "uint256"
        }
      ],
      "payable": false,
      "stateMutability": "view",
      "type": "function"
    },
    {
      "constant": true,
      "inputs": [],
      "name": "numberOfProposals",
      "outputs": [
        {
          "name": "",
          "type": "uint256"
        }
      ],
      "payable": false,
      "stateMutability": "view",
      "type": "function"
    },
    {
      "constant": true,
      "inputs": [
        {
          "name": "proposalID",
          "type": "uint256"
        },
        {
          "name": "suggestionID",
          "type": "uint256"
        }
      ],
      "name": "getProposalSuggestionAmount",
      "outputs": [
        {
          "name": "",
          "type": "uint256"
        }
      ],
      "payable": false,
      "stateMutability": "view",
      "type": "function"
    },
    {
      "constant": true,
      "inputs": [
        {
          "name": "proposalID",
          "type": "uint256"
        },
        {
          "name": "suggestionID",
          "type": "uint256"
        }
      ],
      "name": "getProposalSuggestionVotes",
      "outputs": [
        {
          "name": "",
          "type": "uint256"
        }
      ],
      "payable": false,
      "stateMutability": "view",
      "type": "function"
    },
    {
      "constant": true,
      "inputs": [
        {
          "name": "proposalID",
          "type": "uint256"
        },
        {
          "name": "suggestionID",
          "type": "uint256"
        }
      ],
      "name": "getProposalSuggestionVotesQuantity",
      "outputs": [
        {
          "name": "",
          "type": "uint256"
        }
      ],
      "payable": false,
      "stateMutability": "view",
      "type": "function"
    },
    {
      "constant": true,
      "inputs": [
        {
          "name": "proposalID",
          "type": "uint256"
        }
      ],
      "name": "numberOfProposalSuggestions",
      "outputs": [
        {
          "name": "",
          "type": "uint256"
        }
      ],
      "payable": false,
      "stateMutability": "view",
      "type": "function"
    },
    {
      "constant": true,
      "inputs": [
        {
          "name": "account",
          "type": "address"
        },
        {
          "name": "proposalID",
          "type": "uint256"
        },
        {
          "name": "suggestionID",
          "type": "uint256"
        }
      ],
      "name": "hasVotedFor",
      "outputs": [
        {
          "name": "",
          "type": "bool"
        }
      ],
      "payable": false,
      "stateMutability": "view",
      "type": "function"
    }
  ],
  "bytecode": "0x608060405234801561001057600080fd5b50604051606080611d45833981018060405281019080805190602001909291908051906020019092919080519060200190929190505050336000806101000a81548173ffffffffffffffffffffffffffffffffffffffff021916908373ffffffffffffffffffffffffffffffffffffffff16021790555082600260006101000a81548173ffffffffffffffffffffffffffffffffffffffff021916908373ffffffffffffffffffffffffffffffffffffffff1602179055506100e182826100e9640100000000026401000000009004565b5050506101b6565b6101013361015d640100000000026401000000009004565b151561010c57600080fd5b81600381905550806004819055507f4e5482c936e2afb137e294316762dfae82eecfc2c31ab15d926766d513570ad78282604051808381526020018281526020019250505060405180910390a15050565b60008173ffffffffffffffffffffffffffffffffffffffff166000809054906101000a900473ffffffffffffffffffffffffffffffffffffffff1673ffffffffffffffffffffffffffffffffffffffff16149050919050565b611b80806101c56000396000f30060806040526004361061011d576000357c0100000000000000000000000000000000000000000000000000000000900463ffffffff168063048429d2146101225780630d61b51914610165578063158059e21461019257806323fcff23146101c95780632f54bf6e146102145780634158075d1461026f57806369bd3436146102b057806376a6bf52146102db57806379345879146103205780638160f0b51461036b5780638d7af473146103965780638da5cb5b146103c15780639c699efd14610418578063a1848c9814610487578063a2267a3a146104d2578063a9593b9814610563578063b384abef146105ae578063cf8f9e0c146105f9578063d852f2951461063a578063ee1c3f3614610685578063fc0c546a146106c6575b600080fd5b34801561012e57600080fd5b50610163600480360381019080803573ffffffffffffffffffffffffffffffffffffffff16906020019092919050505061071d565b005b34801561017157600080fd5b5061019060048036038101908080359060200190929190505050610775565b005b34801561019e57600080fd5b506101c7600480360381019080803590602001909291908035906020019092919050505061094f565b005b3480156101d557600080fd5b506101fe60048036038101908080359060200190929190803590602001909291905050506109b4565b6040518082815260200191505060405180910390f35b34801561022057600080fd5b50610255600480360381019080803573ffffffffffffffffffffffffffffffffffffffff169060200190929190505050610a1d565b604051808215151515815260200191505060405180910390f35b34801561027b57600080fd5b5061029a60048036038101908080359060200190929190505050610a76565b6040518082815260200191505060405180910390f35b3480156102bc57600080fd5b506102c5610acf565b6040518082815260200191505060405180910390f35b3480156102e757600080fd5b5061030660048036038101908080359060200190929190505050610ad9565b604051808215151515815260200191505060405180910390f35b34801561032c57600080fd5b506103556004803603810190808035906020019092919080359060200190929190505050610b16565b6040518082815260200191505060405180910390f35b34801561037757600080fd5b50610380610cc6565b6040518082815260200191505060405180910390f35b3480156103a257600080fd5b506103ab610cd0565b6040518082815260200191505060405180910390f35b3480156103cd57600080fd5b506103d6610cda565b604051808273ffffffffffffffffffffffffffffffffffffffff1673ffffffffffffffffffffffffffffffffffffffff16815260200191505060405180910390f35b34801561042457600080fd5b5061046d600480360381019080803573ffffffffffffffffffffffffffffffffffffffff1690602001909291908035906020019092919080359060200190929190505050610d03565b604051808215151515815260200191505060405180910390f35b34801561049357600080fd5b506104bc6004803603810190808035906020019092919080359060200190929190505050610d9b565b6040518082815260200191505060405180910390f35b3480156104de57600080fd5b5061054d6004803603810190808035906020019092919080359060200190929190803590602001908201803590602001908080601f0160208091040260200160405190810160405280939291908181526020018383808284378201915050505050509192919290505050610e04565b6040518082815260200191505060405180910390f35b34801561056f57600080fd5b506105986004803603810190808035906020019092919080359060200190929190505050611265565b6040518082815260200191505060405180910390f35b3480156105ba57600080fd5b506105e36004803603810190808035906020019092919080359060200190929190505050611695565b6040518082815260200191505060405180910390f35b34801561060557600080fd5b5061062460048036038101908080359060200190929190505050611941565b6040518082815260200191505060405180910390f35b34801561064657600080fd5b5061066f6004803603810190808035906020019092919080359060200190929190505050611992565b6040518082815260200191505060405180910390f35b34801561069157600080fd5b506106b0600480360381019080803590602001909291905050506119fb565b6040518082815260200191505060405180910390f35b3480156106d257600080fd5b506106db611a2b565b604051808273ffffffffffffffffffffffffffffffffffffffff1673ffffffffffffffffffffffffffffffffffffffff16815260200191505060405180910390f35b61072633610a1d565b151561073157600080fd5b80600160006101000a81548173ffffffffffffffffffffffffffffffffffffffff021916908373ffffffffffffffffffffffffffffffffffffffff16021790555050565b60008060008061078433610a1d565b151561078f57600080fd5b6006548510151561079f57600080fd5b600560008681526020019081526020016000209350836006015442101580156107d757508360070160009054906101000a900460ff16155b15156107e257600080fd5b60018460070160006101000a81548160ff02191690831515021790555060009250836002016000848152602001908152602001600020600401549150600190505b836003015481101561089557836002016000828152602001908152602001600020600401548201915083600201600084815260200190815260200160002060040154846002016000838152602001908152602001600020600401541115610888578092505b8080600101915050610823565b6003548211156108ca5760018460070160016101000a81548160ff0219169083151502179055508284600801819055506108e8565b60008460070160016101000a81548160ff0219169083151502179055505b7fec8f304a675f7bb10c5d3eb44ea2444dd65a0da66105763bd6b5bb98aa1461db858560070160019054906101000a900460ff1686600801546040518084815260200183151515158152602001828152602001935050505060405180910390a15050505050565b61095833610a1d565b151561096357600080fd5b81600381905550806004819055507f4e5482c936e2afb137e294316762dfae82eecfc2c31ab15d926766d513570ad78282604051808381526020018281526020019250505060405180910390a15050565b6000600654831015156109c657600080fd5b6005600084815260200190815260200160002060030154821015156109ea57600080fd5b60056000848152602001908152602001600020600201600083815260200190815260200160002060030154905092915050565b60008173ffffffffffffffffffffffffffffffffffffffff166000809054906101000a900473ffffffffffffffffffffffffffffffffffffffff1673ffffffffffffffffffffffffffffffffffffffff16149050919050565b600080600090505b600654811015610abb578260056000838152602001908152602001600020600001541415610aae57809150610ac9565b8080600101915050610a7e565b60001515610ac857600080fd5b5b50919050565b6000600454905090565b600060065482101515610aeb57600080fd5b6005600083815260200190815260200160002060070160009054906101000a900460ff169050919050565b600080600084600060065482101515610b2e57600080fd5b6005600083815260200190815260200160002090508060070160009054906101000a900460ff16151515610b6157600080fd5b60008160040160003373ffffffffffffffffffffffffffffffffffffffff1673ffffffffffffffffffffffffffffffffffffffff16815260200190815260200160002054111515610bb157600080fd5b6005600088815260200190815260200160002093508360030160008154809291906001019190505594508360020160008681526020019081526020016000209250338360000160006101000a81548173ffffffffffffffffffffffffffffffffffffffff021916908373ffffffffffffffffffffffffffffffffffffffff1602179055508583600101819055507f9bf08c29d3e870cd29f579e86ce3cebcfa72049aaf11054c3fdf7a46f077735687863389604051808581526020018481526020018373ffffffffffffffffffffffffffffffffffffffff1673ffffffffffffffffffffffffffffffffffffffff16815260200182815260200194505050505060405180910390a18494505050505092915050565b6000600354905090565b6000600654905090565b60008060009054906101000a900473ffffffffffffffffffffffffffffffffffffffff16905090565b600060065483101515610d1557600080fd5b600560008481526020019081526020016000206003015482101515610d3957600080fd5b816005600085815260200190815260200160002060050160008673ffffffffffffffffffffffffffffffffffffffff1673ffffffffffffffffffffffffffffffffffffffff168152602001908152602001600020600101541490509392505050565b600060065483101515610dad57600080fd5b600560008481526020019081526020016000206003015482101515610dd157600080fd5b60056000848152602001908152602001600020600201600083815260200190815260200160002060040154905092915050565b600080600080610e1333611a55565b1515610e1e57600080fd5b60066000815480929190600101919050559350600560008581526020019081526020016000209250868360000181905550600191505b600260009054906101000a900473ffffffffffffffffffffffffffffffffffffffff1673ffffffffffffffffffffffffffffffffffffffff16630f3856566040518163ffffffff167c0100000000000000000000000000000000000000000000000000000000028152600401602060405180830381600087803b158015610eda57600080fd5b505af1158015610eee573d6000803e3d6000fd5b505050506040513d6020811015610f0457600080fd5b81019080805190602001909291905050508211151561113557600260009054906101000a900473ffffffffffffffffffffffffffffffffffffffff1673ffffffffffffffffffffffffffffffffffffffff1663786d358d836040518263ffffffff167c010000000000000000000000000000000000000000000000000000000002815260040180828152602001915050602060405180830381600087803b158015610fae57600080fd5b505af1158015610fc2573d6000803e3d6000fd5b505050506040513d6020811015610fd857600080fd5b81019080805190602001909291905050509050600260009054906101000a900473ffffffffffffffffffffffffffffffffffffffff1673ffffffffffffffffffffffffffffffffffffffff166370a08231826040518263ffffffff167c0100000000000000000000000000000000000000000000000000000000028152600401808273ffffffffffffffffffffffffffffffffffffffff1673ffffffffffffffffffffffffffffffffffffffff168152602001915050602060405180830381600087803b1580156110a857600080fd5b505af11580156110bc573d6000803e3d6000fd5b505050506040513d60208110156110d257600080fd5b81019080805190602001909291905050508360040160008373ffffffffffffffffffffffffffffffffffffffff1673ffffffffffffffffffffffffffffffffffffffff168152602001908152602001600020819055508180600101925050610e54565b610e1060045402420183600601819055508483600101908051906020019061115e929190611aaf565b506111698487610b16565b5060008360070160006101000a81548160ff02191690831515021790555060008360070160016101000a81548160ff0219169083151502179055507f6468ce089187f3b77291732ae6c045c50ef5aa253a7bfd523f14a4717a436386848888886040518085815260200184815260200183815260200180602001828103825283818151815260200191508051906020019080838360005b8381101561121b578082015181840152602081019050611200565b50505050905090810190601f1680156112485780820380516001836020036101000a031916815260200191505b509550505050505060405180910390a18393505050509392505050565b60008060008060008060008060008a60006006548210151561128657600080fd5b6005600083815260200190815260200160002090508060070160009054906101000a900460ff161515156112b957600080fd5b60008160040160003373ffffffffffffffffffffffffffffffffffffffff1673ffffffffffffffffffffffffffffffffffffffff1681526020019081526020016000205411151561130957600080fd5b600560008e815260200190815260200160002099508960050160003373ffffffffffffffffffffffffffffffffffffffff1673ffffffffffffffffffffffffffffffffffffffff16815260200190815260200160002098508860000160009054906101000a900460ff16151561137e57600080fd5b8b89600101541415151561139157600080fd5b89600301548c1015156113a357600080fd5b886001015497508b896001018190555089600201600089815260200190815260200160002096508960020160008d81526020019081526020016000209550886002015494506001876003015411156114d5578660020160006001896003015403815260200190815260200160002060009054906101000a900473ffffffffffffffffffffffffffffffffffffffff1693508387600201600087815260200190815260200160002060006101000a81548173ffffffffffffffffffffffffffffffffffffffff021916908373ffffffffffffffffffffffffffffffffffffffff1602179055508960050160008573ffffffffffffffffffffffffffffffffffffffff1673ffffffffffffffffffffffffffffffffffffffff16815260200190815260200160002092508483600201819055505b8660030160008154809291906001900391905055508960040160003373ffffffffffffffffffffffffffffffffffffffff1673ffffffffffffffffffffffffffffffffffffffff168152602001908152602001600020548760040160008282540392505081905550856003016000815480929190600101919050558960020181905550338660020160008b60020154815260200190815260200160002060006101000a81548173ffffffffffffffffffffffffffffffffffffffff021916908373ffffffffffffffffffffffffffffffffffffffff1602179055508960040160003373ffffffffffffffffffffffffffffffffffffffff1673ffffffffffffffffffffffffffffffffffffffff1681526020019081526020016000205486600401600082825401925050819055507fbdf9b680bb67992cb1bc2642c2b12fdf5e63f1d937f3c05597f0048bad63e7018d898e33604051808581526020018481526020018381526020018273ffffffffffffffffffffffffffffffffffffffff1673ffffffffffffffffffffffffffffffffffffffff16815260200194505050505060405180910390a188600201549a505050505050505050505092915050565b600080600080856000600654821015156116ae57600080fd5b6005600083815260200190815260200160002090508060070160009054906101000a900460ff161515156116e157600080fd5b60008160040160003373ffffffffffffffffffffffffffffffffffffffff1673ffffffffffffffffffffffffffffffffffffffff1681526020019081526020016000205411151561173157600080fd5b6005600089815260200190815260200160002094508460050160003373ffffffffffffffffffffffffffffffffffffffff1673ffffffffffffffffffffffffffffffffffffffff16815260200190815260200160002093508360000160009054906101000a900460ff161515156117a757600080fd5b8460030154871015156117b957600080fd5b846002016000888152602001908152602001600020925060018460000160006101000a81548160ff021916908315150217905550868460010181905550826003016000815480929190600101919050558460020181905550338360020160008660020154815260200190815260200160002060006101000a81548173ffffffffffffffffffffffffffffffffffffffff021916908373ffffffffffffffffffffffffffffffffffffffff1602179055508460040160003373ffffffffffffffffffffffffffffffffffffffff1673ffffffffffffffffffffffffffffffffffffffff1681526020019081526020016000205483600401600082825401925050819055507fd91ecafccf238642dccd41161308b3eebe62a12bc5819daf5164780c221ec95b888833604051808481526020018381526020018273ffffffffffffffffffffffffffffffffffffffff1673ffffffffffffffffffffffffffffffffffffffff168152602001935050505060405180910390a183600201549550505050505092915050565b60006006548210151561195357600080fd5b61195c82610ad9565b1561197f576005600083815260200190815260200160002060080154905061198d565b6000151561198c57600080fd5b5b919050565b6000600654831015156119a457600080fd5b6005600084815260200190815260200160002060030154821015156119c857600080fd5b60056000848152602001908152602001600020600201600083815260200190815260200160002060010154905092915050565b600060065482101515611a0d57600080fd5b60056000838152602001908152602001600020600301549050919050565b6000600260009054906101000a900473ffffffffffffffffffffffffffffffffffffffff16905090565b60008173ffffffffffffffffffffffffffffffffffffffff16600160009054906101000a900473ffffffffffffffffffffffffffffffffffffffff1673ffffffffffffffffffffffffffffffffffffffff16149050919050565b828054600181600116156101000203166002900490600052602060002090601f016020900481019282601f10611af057805160ff1916838001178555611b1e565b82800160010185558215611b1e579182015b82811115611b1d578251825591602001919060010190611b02565b5b509050611b2b9190611b2f565b5090565b611b5191905b80821115611b4d576000816000905550600101611b35565b5090565b905600a165627a7a72305820f6353ab8aaafc894075f35a60eafe9782129faad9adfdcb5bdf4ca614ea02b750029",
  "source": "pragma solidity ^0.4.24;\n\nimport \"./properties/Ownable.sol\";\nimport \"./tokens/Likoin.sol\";\nimport \"./ArtifactsManager.sol\";\n\n/**\n * @title Contract used to vote Artifacts proposals\n */\ncontract Voting is Ownable {\n\n  // The artifacts manager\n  ArtifactsManager private _artifactsManager;\n\n  // The token used for votes weights\n  Likoin private _token;\n\n  // The number of votes quantity able to validate a proposal\n  uint private _minimumQuorum;\n  \n  // Minimum time before execution\n  uint private _debatingPeriodInMinutes;\n  \n  // List of Proposals for Artifact generated by assignee\n  mapping (uint => Proposal) private _proposals;\n \n  // Number of Proposals\n  uint private _numProposals;\n\n  /**\n   * Event for a proposal added\n   */\n  event ProposalAdded(uint proposalID, uint artifact, uint amount, string description);\n  \n  /**\n   * Event for a suggestion added\n   */\n  event SuggestionAdded(uint proposalID, uint suggestionID, address advisor, uint amount);\n  \n  /**\n   * Event for a vote\n   */\n  event Voted(uint proposalID, uint suggestionID, address voter);\n  \n  /**\n   * Event for a vote changed\n   */\n  event VoteChanged(uint proposalID, uint oldSuggestionID, uint newSuggestionID, address voter);\n  \n  /**\n   * Event for a change in rules\n   */\n  event ChangeOfRules(uint newMinimumQuorum, uint newDebatingPeriodInMinutes);\n  \n  /**\n   * Event for an execution\n   */\n  event ProposalExecuted(uint proposalID, bool proposalPassed, uint finalResult);\n  \n  /**\n   * Structure used to manipulate a proposal for an artifact\n   */\n  struct Proposal {\n    uint proposedArtifact;\n    string description;\n    mapping (uint => PriceSuggestion) suggestions;\n    uint numSuggestions;\n    mapping (address => uint256) balancesSnapshot;\n    mapping (address => Vote) votes;\n\n    uint minExecutionDate;\n    bool executed;\n\n    bool proposalPassed;\n    uint finalResult;\n  }\n\n  /**\n   * Structure used to manipulate a suggestion for a price\n   */\n  struct PriceSuggestion {\n    address advisor;\n    uint amount;\n    mapping (uint => address) votes;\n    uint numVotes;\n    uint votesQuantity;\n  }\n\n  /**\n   * Structure used to manipulate a vote of a single member\n   */\n  struct Vote {\n    bool voted;\n    uint suggestionID;\n    uint voteID;\n  }\n\n  /**\n   * @dev Modifier to allow only the ArtifactsManager contract\n   */\n  modifier onlyArtifactsManager() {\n    require(isArtifactsManager(msg.sender));\n    _;\n  }\n\n  /**\n   * @dev Modifier to allow only members when the proposal has not been executed\n   */\n  modifier onlyMembersAndNotExecuted(uint proposalID) {\n    require(proposalID < _numProposals);\n    Proposal storage p = _proposals[proposalID];  \n    require (!p.executed);\n    require (p.balancesSnapshot[msg.sender] > 0);\n    _;\n  }\n\n  /**\n   * @param token Address of the token used for weight\n   * @param minimumQuorumForProposals Number used to validate a vote in the execution\n   * @param minutesForDebate Hours required before execution\n   */\n  constructor (Likoin token, uint minimumQuorumForProposals, uint minutesForDebate) public {\n    _owner = msg.sender;\n    _token = token;\n\n    changeVotingRules(minimumQuorumForProposals, minutesForDebate);\n  }\n\n  /**\n   * @dev Add Proposal\n   */\n  function newProposal(uint propArtifact, uint buckAmount, string memory artifactDescription) onlyArtifactsManager public returns (uint proposalID) {\n    proposalID = _numProposals++;\n    Proposal storage p = _proposals[proposalID];\n    p.proposedArtifact = propArtifact;\n    for(uint i = 1; i <= _token.getBalanceHoldersLength(); i++){\n      address holder = _token.getBalanceHolder(i);\n      p.balancesSnapshot[holder] = _token.balanceOf(holder); \n    }\n    p.minExecutionDate = now + _debatingPeriodInMinutes * 1 hours;\n    p.description = artifactDescription;\n    \n    newPriceSuggestion(proposalID, buckAmount);\n\n    p.executed = false;\n    p.proposalPassed = false;\n    emit ProposalAdded(proposalID, propArtifact, buckAmount, artifactDescription);\n  \n    return proposalID;\n  }\n\n  /**\n   * @dev Add Suggestion\n   */\n  function newPriceSuggestion(uint proposalID, uint buckAmount) public onlyMembersAndNotExecuted(proposalID) returns (uint suggestionID) {\n    Proposal storage p = _proposals[proposalID];\n\n    suggestionID = p.numSuggestions++;\n    PriceSuggestion storage s = p.suggestions[suggestionID];\n    s.advisor = msg.sender;\n    s.amount = buckAmount;\n\n    emit SuggestionAdded(proposalID, suggestionID, msg.sender, buckAmount);\n    return suggestionID;\n  }\n\n  /**\n   * @dev Log a vote for a proposal\n   */\n  function vote(uint proposalID, uint suggestionID) public onlyMembersAndNotExecuted(proposalID) returns (uint voteID) {\n    Proposal storage p = _proposals[proposalID];\n    Vote storage v = p.votes[msg.sender];\n    require(!v.voted);\n\n    require(suggestionID < p.numSuggestions);\n    PriceSuggestion storage s = p.suggestions[suggestionID];\n\n    v.voted = true;  \n    v.suggestionID = suggestionID;    \n    v.voteID = s.numVotes++;\n    s.votes[v.voteID] = msg.sender;\n    s.votesQuantity += p.balancesSnapshot[msg.sender];\n\n    emit Voted(proposalID, suggestionID, msg.sender);\n    return v.voteID;\n  }\n\n  /**\n   * @dev Change vote for a proposal\n   */\n  function changeVote(uint proposalID, uint newSuggestionID) public onlyMembersAndNotExecuted(proposalID) returns (uint voteID) {\n    Proposal storage p = _proposals[proposalID];\n    Vote storage v = p.votes[msg.sender];\n    require(v.voted);\n    require (v.suggestionID != newSuggestionID);    \n    require(newSuggestionID < p.numSuggestions);\n    \n    uint oldSuggestionID = v.suggestionID;\n    v.suggestionID = newSuggestionID;\n    PriceSuggestion storage oldSuggestion = p.suggestions[oldSuggestionID];\n    PriceSuggestion storage newSuggestion = p.suggestions[newSuggestionID];\n\n    uint256 index = v.voteID;\n    if(oldSuggestion.numVotes > 1){\n      address last = oldSuggestion.votes[oldSuggestion.numVotes - 1];\n      oldSuggestion.votes[index] = last;\n      Vote storage vLast = p.votes[last];\n      vLast.voteID = index;\n    }\n    oldSuggestion.numVotes--;\n    oldSuggestion.votesQuantity -= p.balancesSnapshot[msg.sender];\n\n    v.voteID = newSuggestion.numVotes++;\n    newSuggestion.votes[v.voteID] = msg.sender;\n    newSuggestion.votesQuantity += p.balancesSnapshot[msg.sender];\n\n    // Create a log of this event\n    emit VoteChanged(proposalID, oldSuggestionID, newSuggestionID, msg.sender);\n    return v.voteID;\n  }\n\n  /**\n   * @dev Finish vote, count the votes proposal and execute\n   */\n  function executeProposal(uint proposalID) public onlyOwner {\n    require(proposalID < _numProposals);\n    Proposal storage p = _proposals[proposalID];\n    require(now >= p.minExecutionDate && !p.executed);                         \n\n    p.executed = true;\n    uint256 tmpMax = 0;\n    uint256 tmpTotal = p.suggestions[tmpMax].votesQuantity;\n    for(uint i = 1; i < p.numSuggestions; i++){\n      tmpTotal += p.suggestions[i].votesQuantity;\n      if(p.suggestions[i].votesQuantity > p.suggestions[tmpMax].votesQuantity) {\n        tmpMax = i;\n      }\n    }\n    \n    if(tmpTotal > _minimumQuorum){\n      p.proposalPassed = true;\n      p.finalResult = tmpMax;\n    } else {\n      p.proposalPassed = false;\n    }\n\n    emit ProposalExecuted(proposalID, p.proposalPassed, p.finalResult);\n  }\n\n  /**\n   * @dev Change voting rules\n   */\n  function changeVotingRules(uint minimumQuorumForProposals, uint minutesForDebate) public onlyOwner {\n    _minimumQuorum = minimumQuorumForProposals;\n    _debatingPeriodInMinutes = minutesForDebate;\n\n    emit ChangeOfRules(minimumQuorumForProposals, minutesForDebate);\n  }\n\n  /**\n   * @dev Add Artifacts Manager\n   */\n  function addArtifactsManager(ArtifactsManager am) public onlyOwner {\n    _artifactsManager = am;\n  }\n\n  /**\n   * @return The token being used\n   */\n  function token() public view returns(Likoin) {\n    return _token;\n  }\n\n  /**\n  * @return Minimum Quorum\n  */\n  function minimumQuorum() public view returns (uint) {\n    return _minimumQuorum;\n  }\n\n  /**\n  * @return Debating period in hours\n  */\n  function debatingPeriodInMinutes() public view returns (uint) {\n    return _debatingPeriodInMinutes;\n  }\n\n  /**\n  * @return Get proposal id by artifact\n  */\n  function getProposalIdByArtifact(uint artifact) public view returns (uint) {\n    for(uint i = 0; i < _numProposals; i++ ) {\n      if(_proposals[i].proposedArtifact == artifact ){\n        return i;\n      }\n    }\n    require(false);\n  }\n\n  /**\n  * @return true if a proposal is executed\n  */\n  function isExecuted(uint proposalID) public view returns (bool) {\n    require(proposalID < _numProposals);\n    return _proposals[proposalID].executed;\n  }  \n\n  /**\n  * @return Get proposal final result\n  */\n  function getProposalFinalResult(uint proposalID) public view returns (uint) {\n    require(proposalID < _numProposals);\n    if(isExecuted(proposalID)){\n      return _proposals[proposalID].finalResult;\n    }\n    else{\n      require(false);\n    }\n  }\n\n  /**\n  * @return Number of proposals\n  */\n  function numberOfProposals() public view returns (uint) {\n    return _numProposals;\n  }\n\n  /**\n  * @return Amount of proposal suggestion\n  */\n  function getProposalSuggestionAmount(uint proposalID, uint suggestionID) public view returns (uint) {\n    require(proposalID < _numProposals);\n    require(suggestionID < _proposals[proposalID].numSuggestions);\n    return _proposals[proposalID].suggestions[suggestionID].amount;\n  }\n\n  /**\n  * @return Number of votes of proposal suggestion\n  */\n  function getProposalSuggestionVotes(uint proposalID, uint suggestionID) public view returns (uint) {\n    require(proposalID < _numProposals);\n    require(suggestionID < _proposals[proposalID].numSuggestions);\n    return _proposals[proposalID].suggestions[suggestionID].numVotes;\n  }\n\n  /**\n  * @return Quantity of votes of proposal suggestion\n  */\n  function getProposalSuggestionVotesQuantity(uint proposalID, uint suggestionID) public view returns (uint) {\n    require(proposalID < _numProposals);\n    require(suggestionID < _proposals[proposalID].numSuggestions);\n    return _proposals[proposalID].suggestions[suggestionID].votesQuantity;\n  }\n\n  /**\n  * @return Number of proposals suggestions\n  */\n  function numberOfProposalSuggestions(uint proposalID) public view returns (uint) {\n    require(proposalID < _numProposals);\n    return _proposals[proposalID].numSuggestions;\n  }\n\n  /**\n  * @return true if account voted for suggestionID in proposalID\n  */\n  function hasVotedFor(address account, uint proposalID, uint suggestionID) public view returns (bool) {\n    require(proposalID < _numProposals);\n    require(suggestionID < _proposals[proposalID].numSuggestions);\n    return _proposals[proposalID].votes[account].suggestionID == suggestionID;\n  }\n\n  /**\n   * @dev Function indicating if account is ArtifactsManager contract \n   */\n  function isArtifactsManager(address account) private view returns (bool) {\n    return _artifactsManager == account;\n  }\n}\n\n\n",
  "sourcePath": "/home/miker/truffle-projects/LikeStarter-Project/LikeStarterTruffle/contracts/Voting.sol",
  "compiler": {
    "name": "solc",
    "version": "0.4.24+commit.e67f0147.Emscripten.clang"
  },
  "schemaVersion": "2.0.1",
  "updatedAt": "2018-12-01T20:35:48.976Z"
}